:100000000C94BC050C9403060C9403060C94030694
:100010000C9403060C9403060C9403060C9403063C
:100020000C9403060C9403060C9493260C946727F7
:100030000C94B0180C9403060C9403060C9403065D
:100040000C9403060C9403060C9403060C9403060C
:100050000C9403060C9407190C9403060C940306E5
:100060000C9403060C9403060C9403060C940306EC
:100070000C9403060C9403060C9403060C940306DC
:100080000C9403060C9403060C9403060C940306CC
:100090000C9403060C9403060C9403060C940306BC
:1000A0000C9403060C9403060C940306AC00AE00FB
:1000B000AB00A800AA00A9002400250026004445A2
:1000C0004255473A2064697361626C65642E0A0088
:1000D00044454255473A20656E61626C65642E0A5C
:1000E000000A0025303862003A20002530325800DE
:1000F0000A722F632030313233343536370A000A22
:10010000002530325820006B6579626F6172645F40
:100110007265706F72743A20000A00253032580000
:100120006B6579626F6172645F7365745F6C65643F
:100130003A2000290A002575002F002575005D284A
:1001400000256400200025640020002564002000B4
:100150002564007C0025303258006D6F7573656B27
:100160006579205B62746E7C782079207620685DEA
:10017000287265702F61636C293A205B006D6B5F9C
:10018000776865656C5F74696D655F746F5F6D61DD
:1001900078203D2025640A006D6B5F776865656C8B
:1001A0005F6D61785F7370656564203D2025640A2A
:1001B000006D6B5F74696D655F746F5F6D61782052
:1001C0003D2025640A006D6B5F6D61785F7370651B
:1001D0006564203D2025640A006D6B5F696E74655F
:1001E0007276616C203D2025640A006D6B5F64654A
:1001F0006C6179203D2025640A006D6B5F7768652E
:10020000656C5F74696D655F746F5F6D6178203DCB
:100210002025640A006D6B5F776865656C5F6D61B2
:10022000785F7370656564203D2025640A006D6BFE
:100230005F74696D655F746F5F6D6178203D202527
:10024000640A006D6B5F6D61785F73706565642033
:100250003D2025640A006D6B5F696E74657276617E
:100260006C203D2025640A006D6B5F64656C6179CC
:10027000203D2025640A000A00257500363A2077C3
:100280006865656C5F74696D655F746F5F6D6178DB
:100290003A20000A00257500353A20776865656CBC
:1002A0005F6D61785F73706565643A20000A0025B0
:1002B0007500343A2074696D655F746F5F6D6178A5
:1002C0003A20000A00257500333A206D61785F738B
:1002D000706565643A20000A00257500323A20698D
:1002E0006E74657276616C286D73293A20000A007D
:1002F000257500313A2064656C6179282A31306DAA
:1003000073293A20000A092D2056616C7565732007
:100310002D0A004D3E004D25643E20003F007365D0
:10032000742064656661756C740A00433E20007732
:10033000686572652064656C74613A2063757273D8
:100340006F723D25642C20776865656C3D25640AD5
:1003500053656520687474703A2F2F656E2E776927
:100360006B6970656469612E6F72672F77696B695D
:100370002F4D6F7573655F6B6579730A000A092DE0
:10038000204D6F7573656B6579202D0A4553432F9A
:10039000713A09717569740A313A0964656C617959
:1003A000282A31306D73290A323A09696E746572F0
:1003B00076616C286D73290A333A096D61785F7331
:1003C000706565640A343A0974696D655F746F5FBE
:1003D0006D61780A353A09776865656C5F6D61789B
:1003E0005F73706565640A363A09776865656C5FA6
:1003F00074696D655F746F5F6D61780A0A703A09A0
:100400007072696E742076616C7565730A643A095E
:100410007365742064656661756C74730A75703AEF
:10042000092B310A646F776E3A092D310A706775AE
:10043000703A092B31300A7067646F776E3A092D74
:1004400031300A0A7370656564203D2064656C7400
:1004500061202A206D61785F7370656564202A20B1
:1004600028726570656174202F2074696D655F74F2
:100470006F5F6D6178290A003F004D3E2000433ECA
:1004800020004C25640A0074696D65725F726561B5
:1004900064333228293A202530346C580A006B65C1
:1004A00079626F6172645F69646C653A2025580AED
:1004B000006B6579626F6172645F70726F746F63F5
:1004C0006F6C3A2025580A00686F73745F6B65790A
:1004D000626F6172645F6C65647328293A202558E5
:1004E0000A000A092D20537461747573202D0A00C7
:1004F0004743433A20382E332E30204156522D4C5C
:100500004942433A20322E302E30204156525F412C
:100510005243483A20617672350A004F5054494F91
:100520004E533A204C554641204D4F5553454B456F
:10053000592045585452414B455920434F4E534F33
:100540004C4520434F4D4D414E4420343039360AFE
:10055000004255494C443A2022302E392E32312D5A
:1005600035312D6762643463363622202831343ABF
:1005700030313A3531204A756C2020322032303209
:1005800030290A005649443A2030784645454428E7
:1005900029205049443A20307830303030284661A4
:1005A000726577656C6C204D6163726F7061642950
:1005B000205645523A203078303030310A004445D8
:1005C00053433A204661726577656C6C204D6163D8
:1005D000726F7061640A000A092D20566572736992
:1005E0006F6E202D0A000A092D20436F6E736F6C09
:1005F00065202D0A4553432F713A09717569740AB4
:100600006D3A096D6F7573656B65790A000A092D7E
:10061000204D61676963202D0A443A09446562757B
:1006200067204D65737361676520546F67676C65FC
:100630000A583A094D617472697820446562756799
:10064000204D6F646520546F67676C65202D2053C3
:10065000686F77206B657970726573736573206955
:100660006E206D617472697820677269640A4B3A12
:10067000094B6579626F6172642044656275672019
:10068000546F67676C65202D2053686F77206B650A
:10069000797072657373207265706F72740A4D3A67
:1006A000094465627567204D6F75736520546F67E7
:1006B000676C650A563A0956657273696F6E0A531C
:1006C0003A095374617475730A433A094163746952
:1006D0007661746520436F6E736F6C65204D6F6437
:1006E000650A46312D4631303A095377697463689B
:1006F00020746F204C6179657220302D3920284696
:100700003130203D204C30290A302D393A095377B9
:100710006974636820746F204C6179657220302D94
:10072000390A47524156453A09537769746368203C
:10073000746F204C6179657220302028616C74657B
:10074000726E617465290A423A094A756D702074A7
:100750006F20426F6F746C6F616465720A4553431A
:100760003A094A756D7020746F20426F6F746C6F18
:10077000616465722028616C7465726E61746529AC
:100780000A453A095072696E7420454550524F4DE2
:100790002053657474696E67730A42535041434530
:1007A0003A09436C65617220454550524F4D0A002D
:1007B0000A002575002E6E6B726F3A20000A002524
:1007C00075002E737761705F6261636B736C617328
:1007D000685F6261636B73706163653A20000A0051
:1007E0002575002E737761705F67726176655F654E
:1007F00073633A20000A002575002E6E6F5F6775DF
:10080000693A20000A002575002E737761705F72C7
:10081000616C745F726775693A20000A0025750083
:100820002E737761705F6C616C745F6C6775693A89
:1008300020000A002575002E737761705F72637463
:100840006C5F726775693A20000A002575002E7387
:100850007761705F6C63746C5F6C6775693A2000D8
:100860000A002575002E636170736C6F636B5F7493
:100870006F5F636F6E74726F6C3A20000A002575AB
:10088000002E737761705F636F6E74726F6C5F635D
:100890006170736C6F636B3A20000A002530325828
:1008A000006B65796D61705F636F6E6669672E724C
:1008B00061773A20000A002575002E6D6F7573650B
:1008C0003A20000A002575002E6B6579626F61720F
:1008D000643A20000A002575002E6D6174726978F3
:1008E0003A20000A002575002E656E61626C653A3B
:1008F00020000A00253032580064656275675F6326
:100900006F6E6669672E7261773A20000A0025755E
:100910000064656661756C745F6C617965723A201C
:10092000003F000A6D6F7573653A206F66660A00B6
:100930000A6D6F7573653A206F6E0A000A6B6579F0
:10094000626F6172643A206F66660A000A6B6579AD
:10095000626F6172643A206F6E0A000A6D61747290
:1009600069783A206F66660A000A6D617472697868
:100970003A206F6E0A000A64656275673A206F66F6
:10098000660A000A64656275673A206F6E0A000A9B
:100990000A4A756D70696E6720746F20626F6F749C
:1009A0006C6F616465722E2E2E2000433E20004342
:1009B0006C656172696E6720454550524F4D0A0063
:1009C0006565636F6E6669673A0A005B735D004B2D
:1009D0006579626F6172642073746172742E0A00AB
:1009E0005B575D005B535D005B525D005B445D00E7
:1009F0005B435D00040330000000240346006100F7
:100A000072006500770065006C006C0020004D00EE
:100A10006100630072006F007000610064000000FC
:100A2000020300000403090409025B00030100A0A3
:100A3000FA0904000001030101000921110100016C
:100A40002240000705810308000A09040100010390
:100A50000000000921110100012281000705820325
:100A600020000A090402000203000000092111010C
:100A7000000122220007058303200001070503036C
:100A80002000011201100100000008EDFE0000012D
:100A900000010203010631FF0974A1010975150067
:100AA00026FF009520750881020976150026FF00B3
:100AB000952075089102C005010902A1018502096E
:100AC00001A10005091901290515002501950575E4
:100AD0000181029501750381010501093009311574
:100AE00081257F95027508810609381581257F9536
:100AF0000175088106050C0A38021581257F9501CC
:100B000075088106C0C005010980A101850319018E
:100B10002AB700150126B700950175108100C005A0
:100B20000C0901A101850419012AA002150126A0C2
:100B300002950175108100C005010906A101050794
:100B400019E029E715002501950875018102950135
:100B5000750881010507190029FF150026FF00957A
:100B6000067508810005081901290595057501918B
:100B700002950175039101C011241FBECFEFDAE089
:100B8000DEBFCDBF04B603FE27C080913C0290912A
:100B90003D02A0913E02B0913F028730904BA740AA
:100BA000B04BD1F410923C0210923D0210923E02E2
:100BB00010923F0214BE84B7877F84BF0FB6F894AB
:100BC000A895809160008861809360001092600019
:100BD0000FBEE0E0F8E3099511E0A0E0B1E0E4E742
:100BE000F3E502C005900D92A639B107D9F722E0CE
:100BF000A6E9B1E001C01D92AC33B207E1F70E9453
:100C0000B9230C9494290C940000FF93EF93E09186
:100C10009601F0919701309709F00995EF91FF91B6
:100C20000895FC018591803011F0EFDFFBCF08952E
:100C3000FF27E0E230E247FF0CC0419597FF09C073
:100C4000EDE26095709580959095611D711D811DF7
:100C5000911D27FF02C0219530E350E2AA27660FBD
:100C6000771F881F991FAA1FA41710F0A41B639554
:100C70005A95A9F7AA3008F0A95FA05DAF93F39544
:100C8000611571058105910541F7ED3211F4EF937E
:100C9000F395F21718F43F93F395FBCF8F91B5DFDF
:100CA000FA95E1F70895E991F9918591803021F065
:100CB000853219F0AADFF9CF089520E0E894559124
:100CC0005532C1F3503311F4689455915A3348F4B6
:100CD000505390F3220F022E220F220F200D250FCA
:100CE000F4CF0EF4219589919991533619F3533726
:100CF00029F1533559F1BC0188279927E8945C36CE
:100D000021F48991999168945591543639F446EFBC
:100D10007EF077FF0DC08FEF9FEF0AC055374AE096
:100D200039F0583540E121F0523642E009F008959B
:100D3000FF93EF937DDFEF91FF91B7CFFF93EF9399
:100D4000FC0181918030B9F360DFFBCFFF93EF931B
:100D500068DFF1CFDF93CF93CDB7DEB72596A3DF62
:100D6000CF91DF91089581E0089581E008950C947A
:100D7000B50608950C94B9061F93CF93DF9300D066
:100D800000D00F92CDB7DEB749835A836B83309181
:100D9000A90189819A8131111DC06623B9F02223EE
:100DA000A9F00E941116182F682F89819A810E943C
:100DB000BC1569817A81812F0F900F900F900F9051
:100DC0000F90DF91CF911F910C947E070E94E9153F
:100DD000182FEFCF0E94111669817A81EDCFFC01A7
:100DE000262F408151816281738184810C94BC06DD
:100DF000CF93DF93EC0160E00E94EF06BE01DF912C
:100E0000CF910C94BA060E946517811102C00E940E
:100E100002180C9467090C946A0908950C940D0744
:100E200081E008950C941007CF93C82F0E940E07FD
:100E30008C2FCF910C94120708950E949E110E944E
:100E40001C072FEF84E39CE0215080409040E1F7A5
:100E500000C000000C942B190F931F93CF93DF93C6
:100E6000EC0161E00E94EF068C01BE010E94B70612
:100E7000882311F1BE01C8010E942D0B8823E1F0E7
:100E8000BE01C8010E946E0B8823B1F0BE01C801EB
:100E90000E94910C882381F08A81882341F10130DE
:100EA0008CE5180779F00E3D8CE51807E9F001157F
:100EB0001C45E9F40E941D0780E0DF91CF911F914E
:100EC0000F91089590910102892F8E7F90FF81608C
:100ED0008093010280FF05C080ED90E00E94110622
:100EE000EBCF8EEB90E0FACF0E940218E5CFCE0157
:100EF000DF91CF911F910F910C94B306972F70E063
:100F000023E0929F600D711D1124FB0199E0899FE0
:100F1000E00DF11D1124EE0FFF1FE455FF4F8591E9
:100F200094910895CF93DF930E947E070E948C08CE
:100F3000EC01811521E5920708F042C0811530E5EA
:100F4000930708F09DC0883E910530F5803E9105DD
:100F500008F092C0883A910588F4853A910508F026
:100F600084C08130910509F487C0009709F484C0DA
:100F7000049708F081C0D0E0C0E07EC08F3B9105AF
:100F8000D0F7C85AD0E0CC0FDD1FCB5EDE4F099002
:100F9000D881C02DD46470C08115904250F4C11521
:100FA00081E0D80708F068C0C03FD10520F3D065C4
:100FB00063C0C11590E4D907F0F2DF70D06A5CC05D
:100FC000811525E5920700F5811534E5930708F0B2
:100FD0008BC0811543E5940708F073C0C11582E505
:100FE000D80708F469C0CE018370992721E030E06A
:100FF00002C0220F331F8A95E2F7C695C69580E29C
:10100000C89FE001112454C0C11599E5D907A8F47F
:10101000C11528E5D20708F06CC0C11536E5D30725
:1010200008F0A9CF8C2F0E942309C82FD0E0DC2F15
:10103000CC27CC27DF71D0621FC0C1154AE5D40789
:1010400008F45CC0CE0190568115904208F093CF11
:101050008D2F8F710E94230990E0982F8827882771
:101060009F719C012C2BE901E6CFC55AD0E0CD5BE6
:10107000DE4FC881D0E0D064CE01DF91CF910895DA
:10108000E4E096958795EA95E1F783702C2F2695F5
:101090002695237040E2249F90011124382B8C2F39
:1010A0008370C1E0D0E002C0CC0FDD1F8A95E2F76B
:1010B000C22BD32BDC68E0CFDC2FCC27C16FD06AEA
:1010C000DBCF8370992721E030E002C0220F331F6D
:1010D0008A95E2F7C695C69590E2C99FE001112472
:1010E000C22BD32BDA68C8CFD82FCC27C46FD06AD5
:1010F000C3CFDC2FCC27C06FD06ABECF8C2F8F70B0
:101100000E94230934E0D695C7953A95E1F7CF7050
:101110009C2FEC01D069B0CF82389105B1F1B0F4C9
:101120008133910509F475C048F48932910509F4B9
:1011300069C08A32910509F473C008958533910519
:1011400009F459C08933910501F10895833E910551
:10115000A9F138F4803E9105F9F0823E910549F1FC
:101160000895863E9105A9F1873E9105C9F1843E17
:10117000910519F520912E0221FF1FC080912D02AB
:1011800084FD14C087EE90E0089520912D02237015
:10119000A1F080EE90E0089520912D0220FD47C03F
:1011A00030912E0230FF09C024FF44C090E080E05F
:1011B00004C020912D0222FDF7CF089520912D0229
:1011C00022FD3BC030912E0230FDE3CF24FFF5CF4E
:1011D000EDCF20912D0223FFF0CF24FDE7CFD2CF1A
:1011E00020912D0223FD2CC030912E0231FFEECF35
:1011F00084EE90E0089520912D0225FFDECF89E254
:1012000090E0089520912D0225FFD7CF85E390E04F
:10121000089520912D0226FFD0CF8AE290E0089514
:1012200020912D0226FFC9CF81E390E0089589E344
:1012300090E0089583EE90E0089582EE90E00895A6
:1012400086EE90E0089590912D0292FF06C0282F1F
:1012500028712830F9F4877F846093FF06C0282F17
:1012600028712831F1F4877E846120912E0220FFBD
:1012700006C0382F38713830D9F4877F816021FF5C
:1012800006C0282F28712831D1F4877E816194FD12
:10129000877E0895282F24712430F9F68B7F88608B
:1012A000DCCF282F2471243101F78B7E8861DDCFBC
:1012B000382F3171313019F78E7F8860E0CF282FB9
:1012C0002171213121F78E7E8861E1CF08950C9440
:1012D000660908950C946909E82FF0E0EC5DFD4F74
:1012E00080810895CF92DF92EF92FF920F931F9328
:1012F000CF93DF9380EF90E00E94110684E2E82E06
:1013000082E0F82ED0E0C0E09BEEC92E90E0D92E0E
:1013100003EE10E0DF93CF93DF92CF920E94AA06F4
:1013200088EE90E00E941106F70181917F010E94F2
:101330004D171F928F931F930F930E94AA0681EE61
:1013400090E00E94110621968DB79EB708960FB6C1
:10135000F8949EBF0FBE8DBFC330D105D9F6DF9183
:10136000CF911F910F91FF90EF90DF90CF90089554
:1013700080EA8A95F1F70895CF93DF93A9E4B1E06D
:101380004CE451E0C1E0D0E08D91E82FE295EF70A0
:10139000F0E061A18F709E0101C0220F8A95EAF7EB
:1013A000922F9095962391A382A1822B82A34A1714
:1013B0005B0751F7A6E4B1E049E451E0C1E0D0E0B9
:1013C0008D91E82FE295EF70F0E061A18F709E01A2
:1013D00001C0220F8A95EAF7922F9095962391A348
:1013E00082A1822B82A34A175B0751F71092210238
:1013F00010922402109222021092250210922302CF
:101400001092260283E00E94890ADF91CF910C940A
:1014100003078F929F92AF92BF92CF92DF92EF928B
:10142000FF920F931F93CF93DF9389E4A82E81E05F
:10143000B82E01E212E0912CCC24C394D12CF501FA
:1014400081915F01C82FC295CF70D0E099A18F70B4
:10145000760101C0EE0C8A95EAF7892F8E2989A3BF
:101460008AA18E2C809488218AA30E94B809E6E480
:10147000F1E050E040E020E03191A32FA295AF7061
:10148000B0E090968C9190E03F7002C09595879562
:101490003A95E2F780FD39C08C2D042E01C0880FEB
:1014A0000A94EAF7282B4F5F5F4F4330510521F72D
:1014B00089A1882289A28AA1E82AEAA2F80180816A
:1014C000281729F1208381E0982A0F5F1F4FFCE441
:1014D000AF16F1E0BF0609F0B2CF292D43E064E278
:1014E00072E081E292E00E948A0A0E940B07892D35
:1014F000DF91CF911F910F91FF90EF90DF90CF90F0
:10150000BF90AF909F908F90089580E0CBCF80E008
:10151000DBCF0895FF920F931F93CF93DF93F82EA5
:10152000092F162FD72FC42F222349F081E0809353
:101530009A010E94E01890939901809398018091FC
:101540009A018823A1F080919801909199010E94BD
:10155000F818069760F0EF2DF02FA12FBD2FCE0FBA
:10156000DF2FD11DEC17FD0741F410929A01DF9196
:10157000CF911F910F91FF90089581918D93F2CF9C
:101580000F931F93CF93DF93C62FD42F022FFC010D
:1015900082818823C9F060939D010E94E018909396
:1015A0009C0180939B0180E28C0F883008F050C032
:1015B000C77081E001C0880FCA95EAF7DF91CF912B
:1015C0001F910F910C94F80E10919D01161335C0C8
:1015D00080919B0190919C010E94F818883C910594
:1015E00060F5C0E2CD0F1D17B9F080E2810F8830A1
:1015F00040F4177081E001C0880F1A95EAF70E9445
:10160000FF0EC83048F481E09D2F977001C0880F0D
:101610009A95EAF70E94F80E802F0E94E50EC830D6
:10162000B8F4D77081E001C0880FDA95EAF7DF914E
:10163000CF911F910F910C94FF0E80E28C0F883098
:1016400038F4C77081E001C0880FCA95EAF7EFCF80
:10165000DF91CF911F910F9108959C01CB01233F02
:101660004CE5340731F190F4283DFCE53F07E9F003
:10167000293D4CE5340769F1273D3C4579F426E2E4
:1016800041EE61EE0E94C00A80E00895253FFCE52E
:101690003F07B9F090F0263F3C45B9F0FC0182814C
:1016A0008823D1F010929D01089527E245EE65EE62
:1016B000E9CF26E241EE60EEE5CF27E245EE64EEAB
:1016C000E1CF26E241EE62EEDDCF27E245EE66EEA7
:1016D000D9CF28E241E0EBCF81E00895CF93DF93AB
:1016E000EC01FB018281882309F419C1C230FCE5B9
:1016F000DF07C0F1C6319CE5D90730F09E012A5FB3
:101700003C452930310570F50E94781790932E02E0
:1017100080932D02C031ECE5DE0709F4CFC008F05C
:101720005BC0C8308CE5D80709F4B6C088F5C43072
:10173000ECE5DE0709F4A8C0C0F4C2308CE5D80798
:1017400009F49CC080912D028260C330DC4509F40D
:1017500098C080912D0290912E020E9486170E94BF
:101760009E1180E0DF91CF91089580912D028061DC
:10177000C630ECE5DE0709F484C080912D02886054
:10178000C730DC4508F47DC080912D02806279C0AD
:10179000CC308CE5D80709F489C070F480912D0213
:1017A0008C60CA30ECE5DE0709F46BC008F478C041
:1017B00080912D028E7F65C0CE308CE5D80709F46C
:1017C00079C080912D028B7FCF30DC4508F459C061
:1017D00080912D028F7E55C0CB3FECE5DE0709F4EA
:1017E00057C030F5C3318CE5D80709F46FC078F4E1
:1017F000C131ECE5DE0709F465C0C231DC4509F012
:10180000A8CF0E949E1180912D028F773AC0C531DA
:101810008CE5D80709F462C008F476C080912E02E6
:101820008160CA3FDC4509F094CF80932E0291CFAE
:10183000CF3FFCE5DF0709F44DC088F480912E020C
:101840008D7FCD3F9CE5D90781F380912E028E7F5D
:10185000CE3FDC4550F380912E028360E6CFC1304D
:10186000FDE5DF0709F459C008F444C080E0C23048
:10187000DD4509F06ECF0E9404186BCF80912D02D8
:10188000816080932D0265CF80912D028460F9CF15
:1018900080912E028260C9CF80912D028064F1CFA9
:1018A0000E949E1180912D028068EBCF80912D02C5
:1018B0008D7FE7CF80912D02877FE3CF80912D022E
:1018C0008F7DDFCF80912D028F7BDBCF80912D022A
:1018D000837FD7CF80912E028C7FA7CF80912D025E
:1018E00082FB992790F921E0922790FB82F990FBE7
:1018F00083F9C7CF80912E02982F909591708E7F9B
:10190000892B90FB81F991CF0E949E1190912D021D
:10191000892F97FB87F98058B4CF81E0ACCF81E065
:1019200021CFCF93DF93EB0186319C4511F50E94C7
:10193000A6169A81992399F08A7A91E009F490E0A9
:1019400090939E01811109C089E20E9481160E9434
:10195000E51680E0DF91CF91089585E3F6CF809181
:101960009E01811104C089E20E948816F0CF85E3B0
:10197000FBCF81E0EFCF9093A4018093A301089562
:10198000E091A301F091A401309721F00190F08142
:10199000E02D099480E00895EF92FF920F931F933A
:1019A000CF93DF938C01E091A301F091A4013097D4
:1019B000C1F10280F381E02D09958091010282FF3F
:1019C00030C080FF04C087E091E00E941106D0E0A3
:1019D000C0E081E0E82E81E0F82E8091010280FFD6
:1019E0000EC0F801EC0FFD1F80811F928F93FF92B4
:1019F000EF920E94AA060F900F900F900F902196E1
:101A0000C830D10551F78091010280FF0AC08FEFE5
:101A100090E0DF91CF911F910F91FF90EF900C9488
:101A20001106DF91CF911F910F91FF90EF900895D4
:101A3000E091A301F091A401309739F022E0DC019C
:101A40002C930480F581E02D099408952091A10143
:101A50003091A2012817390771F09093A201809369
:101A6000A101E091A301F091A401309721F006803B
:101A7000F781E02D0994089520919F013091A001F4
:101A80002817390771F09093A00180939F01E0918E
:101A9000A301F091A401309721F00084F185E02D9D
:101AA0000994089585B7806885BF85B7806885BF2C
:101AB0000895089508950C94590D08950C945D0DA2
:101AC0000E94520D0E945A0D0C945B0D81E0089506
:101AD0000C94660D0E94D7180E94BC090E943C1904
:101AE0000C945E0DCF93C82F8091010282FF1EC01F
:101AF00080FF1CC080E291E00E94110680910102EB
:101B000080FF14C01F92CF938BE191E09F938F933E
:101B10000E94AA06809101020F900F900F900F90E3
:101B200080FF04C089E191E00E9411068C2FCF91C3
:101B30000C941407AF92BF92CF92DF92EF92FF9274
:101B40000F931F93CF93DF93CDB7DEB72A970FB6CE
:101B5000F894DEBF0FBECDBF0E94090A0E94680D37
:101B6000882309F45FC086EAA82E81E0B82E10E031
:101B700000E0C02E802F0E946C09E82EF501D19064
:101B80005F01D81609F448C08091010281FD0E94CE
:101B9000720980E0FF24F394DE249D2D9F21B9F18A
:101BA0008E83CF82EF2081E009F480E088870E9455
:101BB000E0188160782F9A8789874E815F816885D8
:101BC0008A850E94340EF801EA55FE4F8081F8267E
:101BD000F0820E944B1B0E94C00C9091A5018917B6
:101BE00091F10E94C00C8093A5012A960FB6F8943B
:101BF000DEBF0FBECDBFDF91CF911F910F91FF9040
:101C0000EF90DF90CF90BF90AF900C94720D8F5FEC
:101C1000FF0C833009F0C1CF0F5F1F4F0330110558
:101C200009F0A7CF8FEF89838A831B820E94E01877
:101C30008160782F9D838C8349815A816B818D814E
:101C40000E94340EC6CF2A960FB6F894DEBF0FBEA0
:101C5000CDBFDF91CF911F910F91FF90EF90DF905B
:101C6000CF90BF90AF900895CF93DF93CDB7DEB7FD
:101C70002B970FB6F894DEBF0FBECDBF4F835887AA
:101C800069877A878B871E821D8285E0FE013796E1
:101C9000DE01119601900D928A95E1F749815A81F2
:101CA0006B817C818D819E812B960FB6F894DEBF6F
:101CB0000FBECDBFDF91CF910C941414FC01808135
:101CC00091810C945316CF93C82F882309F44CC0EC
:101CD0008CEF8C0F813AC8F48C2F0E943C2081112C
:101CE00043C06C2F80910001909101010E941B184C
:101CF000882329F08C2F0E9488160E94E5168C2FCD
:101D00000E948116CF910C94E51680E28C0F8830EA
:101D100048F4C77081E001C0880FCA95EAF70E94B5
:101D2000A916F0CFEBE5EC0FE33040F4F0E0E65815
:101D3000FE4F808190E0CF910C94260DE8E5EC0FEA
:101D4000E73150F4F0E0EE0FFF1FE45BFE4F8081BF
:101D50009181CF910C943C0DC03F30F08C2F0E94AC
:101D6000D719CF910C94BE1ACF910895882361F1B1
:101D70009CEF980F913A20F40E9488160C94E51677
:101D800090E2980F983050F4877091E001C0990F5D
:101D90008A95EAF7892F0E94AF16F0CF9BE5980F3E
:101DA000933020F490E080E00C94260D98E5980F95
:101DB000973120F490E080E00C943C0D803F20F0BF
:101DC0000E943F1A0C94BE1A0895CF93C82F0E9408
:101DD000630EC93349F42FEF87EE93E02150804022
:101DE0009040E1F700C000008C2FCF910C94B60E0C
:101DF000882321F00E94A9160C94E51608958823E3
:101E000021F00E94AF160C94E5160895BF92CF9270
:101E1000DF92EF92FF920F931F93CF93DF936C01AA
:101E2000D62FC72FFC01058102950F701281111169
:101E30000E94C6160E949F16E82E882391F0112357
:101E4000E9F08C2F807F803421F080E28D0F883084
:101E5000A8F082E00E9430170E949F1691E0E82EC1
:101E6000E926BC2EB2949FE0B922FBE0FB15A8F155
:101E7000EB2DF0E0EA56F64D0C943829E12CF1CF29
:101E80000C2F0F70C07F11F00295007F1123A9F075
:101E9000002359F080E28D0F883010F0D11109C075
:101EA000802F0E94A9160E94E5168D2F0E94630EB6
:101EB00014C0802F0E94B916F6CF8D2F0E94B60E47
:101EC000002359F080E28D0F883010F0D1112CC022
:101ED000802F0E94AF160E94E5162B2D2850330B41
:101EE0002430310520F40E94C00C0E941407EE201B
:101EF00009F4C5C10E949B1680FDC1C1F601128282
:101F00000E9495160E942015C6010E9460110E9431
:101F10009516DF91CF911F910F91FF90EF90DF9079
:101F2000CF90BF900C944115802F0E94BF16D3CF45
:101F30002C2F2F70F22EC07FC03219F0F29480EF58
:101F4000F822DD2369F0D13049F1112391F100230A
:101F500051F1F601858180FFA8CF8F70858323C062
:101F6000112381F0011106C00E94CC168F290E9416
:101F7000F80EB3CF0130C1F70E94CC168F290E9412
:101F8000D216ABCF011106C00E94DB168F2D0E9426
:101F9000FF0EA3CF013009F4A0CFF6CF112329F013
:101FA000063008F09ACF8F2DE2CF053008F095CF9C
:101FB000EDCF002359F3D93349F4FFEF27EE33E097
:101FC000F15020403040E1F700C000008D2F0E940A
:101FD000B60E83CF8C2F86958695837069F08130FD
:101FE00009F07BCF8D2F9C2F9370111102C090E0D0
:101FF00080E00E943C0D71CF8D2F9C2F93701111AA
:1020000002C090E080E00E94260D67CF112309F105
:10201000D53F99F0D63FB9F0D43F49F480912702DB
:1020200090912802816090932802809327028D2F3F
:102030000E94D7190E94BE1A50CF8091270290911A
:1020400028028260F0CF809127029091280284605C
:10205000EACFD53F89F0D63FA9F0D43F49F480912B
:102060002702909128028E7F909328028093270266
:102070008D2F0E943F1ADECF809127029091280277
:102080008D7FF2CF80912702909128028B7FECCF39
:102090008C2F837009F041C011111FCF4D2F429535
:1020A00046954770440F440F0D2F0F7010E030E03D
:1020B00020E0042E04C0000F111F221F331F0A94BA
:1020C000D2F760E070E0CB01D4FF0FC06FE070E0AA
:1020D00080E090E004C0660F771F881F991F4A9523
:1020E000D2F76095709580959095C695C695C3700A
:1020F000602B712B822B932BC23049F058F4C130E6
:1021000019F00E94D214E9CE0E94C014E6CE0E94BB
:10211000E414E3CE0E94BE14E0CE8695112311F0A4
:102120008C2F8170882309F4D8CE4D2F4295469587
:102130004770440F440F0D2F0F7010E030E020E087
:10214000042E04C0000F111F221F331F0A94D2F760
:1021500060E070E0CB01D4FF0FC06FE070E080E082
:1021600090E004C0660F771F881F991F4A95D2F729
:102170006095709580959095C695C695C370602BB7
:10218000712B822B932BC23049F058F4C13019F0D7
:102190000E949715A2CE0E9485159FCE0E94A91578
:1021A0009CCE0E94FA1499CECF70112329F08C2F67
:1021B0000E9420158D2FDBCE8D2F0E94FF0E8C2FBD
:1021C0000E9441158ACED23F89F160F4D03FC9F018
:1021D000D13F29F1112309F442C0011166CE8C2FA1
:1021E0008F7121C0D33F39F1D43FA1F7112369F199
:1021F000CF718C2F0E94201563E08C2F0E941B173B
:102200006CCE112341F0053008F067CE8C2F8F7112
:102210000E94641562CE063008F05FCEF7CF8C2F97
:102220008F71112369F20E94201557CE8C2F8F7168
:102230001123C9F3C5CF112329F08C2F8F710E9470
:102240000B154BCE0E94061548CE81E00E94301738
:10225000023008F442CE82E00E9430173ECE0023C6
:1022600059F0D93309F0B2CE8FEF97EEE3E0815009
:102270009040E040E1F7A8CE8C2F8F71A1CFDF9185
:10228000CF911F910F91FF90EF90DF90CF90BF9073
:1022900008950F931F93CF93DF93EC0168817981A9
:1022A0008A810E945D168C010E94BB150E94BD149C
:1022B000B801CE01DF91CF911F910F910C94060FC1
:1022C000CF93DF93EC018B819C81892B29F088814E
:1022D000998189238F3F59F4DF91CF910895CE01E1
:1022E0000E944911CE01DF91CF910C94F806CE01E6
:1022F0000E942C078111F3CF0E949F16882361F35F
:102300008A81882349F382E0DF91CF910C943017C2
:102310000E94C6160E94C9160E94E5160E94651CFE
:102320000E94BE1A90E080E00E94260D90E080E0BE
:102330000C943C0D0E948F160C9488110E94B616C6
:102340000C949A11E92FE295EF70E250EE3070F4A0
:10235000F0E0EE55F64D0C943829803F19F020F44A
:10236000883E20F481E00895843FE1F380E0089501
:10237000883EC0F3813FD1F7F5CF93FB882780F9E2
:1023800008950E9453160C94A211CF93DF9300D0AE
:1023900000D00F92CDB7DEB70F900F900F900F9037
:1023A0000F90DF91CF910895CF93DF9300D000D0AD
:1023B00000D0CDB7DEB726960FB6F894DEBF0FBEBD
:1023C000CDBFDF91CF9108951F93CF93DF93C0913D
:1023D000AA0116E08091AB018C1304C0DF91CF916C
:1023E0001F910895D0E01C9FF0011D9FF00D112456
:1023F000E455FE4F408151816281738184819581D2
:102400000E94D4112196C770E5CF4091DC01509114
:10241000DD016091DE017091DF018091E00190911A
:10242000E1010C94D4111F93CF93DF938091E101CC
:10243000807FA9F48091DE01882389F08091AA0130
:10244000C091AB016091DC017091DD01A091DF01D1
:10245000B091E001D62FD72316E0C81304C0DF9156
:10246000CF911F91089590E0109711F0DF3F19F47C
:1024700001968770F2CF189F9001199F300D11249B
:10248000F901E455FE4F41814713F2CF40814613D5
:10249000EFCF42814111ECCF438154814A1B5B0B4A
:1024A000483C510528F78091E1018F70806180934D
:1024B000E101F901EF54FE4F80818F7080618083CC
:1024C0008CED91E00E946011DF91CF911F910C94EF
:1024D000E411AF92BF92CF92DF92EF92FF920F93EF
:1024E0001F93CF93DF93CDB7DEB761970FB6F89404
:1024F000DEBF0FBECDBF8C0185E0F801DE011D9669
:1025000001900D928A95E1F7F80140815181E280B6
:102510008CEDC82E81E0D82E6091DF017091E00132
:102520006115710509F461C19091DC012091DD0113
:10253000892F82238F3F09F458C1A380B480F09083
:10254000DE01F501E61BF70BFF2009F4FCC08091CA
:10255000E101382F307FE83CF10508F0B2C03111BD
:1025600079C0FE2C251323C0941321C0E1101FC095
:102570008F7080618093E1010E940512C6010E9464
:1025800060118091E101F80185838F2D61960FB66E
:10259000F894DEBF0FBECDBFDF91CF911F910F9199
:1025A000FF90EF90DF90CF90BF90AF900895AB2851
:1025B00029F0842F85238F3F09F033C180E0F82F65
:1025C000F170DF2E80FF3CC08091AA012091AB0109
:1025D00036E0821315C04D875E878D859E850E94EB
:1025E0005316292F22952F702230F0F0243018F541
:1025F0009F70F1F0F8019581907FD1F4D12C1EC02D
:1026000090E0389FF001399FF00D1124E455FE4F02
:102610006181651306C06081641303C062816E111D
:102620000FC001968770D5CF9F7011F0882331F3CA
:10263000805E883018F3C8010E946011FD2CA5CF80
:10264000EE2009F4A2CF8091E10181608093E10145
:10265000F12C9BCF251306C0941304C0F801EE2083
:1026600009F48DC04D875E878D859E850E94C111BE
:10267000882319F1EE2009F18091E101803270F098
:102680002091DC013091DD0138872F831986BB86CC
:10269000AA868C87CE0107960E94601186E0F80119
:1026A000ACEDB1E001900D928A95E1F70E94131212
:1026B0000E940512FF24F39468CFC8010E946011A4
:1026C000F9CF311113C07A2DB98AA88A6E2D898964
:1026D0000E94C5118CED91E00E94601186E0F60128
:1026E00011928A95E9F70E940512B2CF25130FC007
:1026F00094130DC0E1100BC0F8018583C8010E943E
:10270000601186E0F60111928A95E9F73ECF4D8778
:102710005E878D859E850E94C111882371F2EE200F
:1027200061F28091E101803208F4B8CF2091DC01A0
:102730003091DD013A8329831B82BD82AC828E8376
:10274000CE010196A9CFE83CF10508F041C0FE2C6E
:10275000EE2009F4B2CF25132AC0941328C080912B
:10276000E10180FD1BC0982F907FC1F0F8018583A7
:10277000903F31F0982F907F905F8F70892B8583E9
:10278000C8010E94601186E0F801ACEDB1E0019053
:102790000D928A95E1F70E940512F7CE86E0F801C6
:1027A000ACEDB1E001900D928A95E1F7EECE4D8748
:1027B0005E878D859E850E94C11181116FCF8091AA
:1027C000E10181608093E101C8010E946011DDCECA
:1027D0007A2DB98AA88A6E2D89890E94C51186E052
:1027E000F60111928A95E9F7D6CFEE2009F465CF6C
:1027F0004D875E878D859E850E94C111F82E8823A6
:1028000009F45BCF86E0F801ACEDB1E001900D92E8
:102810008A95E1F78CED91E00E945E0E0E94131202
:10282000BACF81E08E25CBCE1F93CF93DF93CDB768
:10283000DEB72C970FB6F894DEBF0FBECDBF4F8327
:10284000588769877A878B879C87CE0107960E9475
:102850006912882369F08A859B85892B39F04F811D
:102860005885842F85238F3F09F071C016E05FC023
:1028700086E0FE013796DE01119601900D928A9551
:10288000E1F78A859B85892B89F388859F81892338
:102890008F3F61F32091AB0130E0C9010196877051
:1028A00099274091AA014817190671F40E949E11B8
:1028B0001092AB011092AA0186E0ECEDF1E0DF018D
:1028C0001D928A95E9F7D2CF96E0929FD001939F0F
:1028D000B00D1124A455BE4FFE01319601900D920A
:1028E0009A95E1F78093AB010E94E411BFCF819FDD
:1028F000C001112484559E4F0E9469128823E9F07B
:10290000E091AA011E9FF0011124E455FE4F408181
:10291000518162817381848195810E94D41180915B
:10292000AA0190E00196877099278093AA0180916F
:10293000AA019091AB018913DACF2C960FB6F894C7
:10294000DEBF0FBECDBFDF91CF911F910895698586
:102950007A858B859C850E94D41188CF08950C942C
:10296000AE140E94AF146093F0017093F101809354
:10297000F2019093F3010C94881108950C94B11412
:102980000F931F930091F0011091F1012091F2013A
:102990003091F301602B712B822B932B1F910F91A0
:1029A0000C94B1140F931F930091F0011091F10159
:1029B0002091F2013091F30160237123822393234C
:1029C0001F910F910C94B1140F931F930091F0017C
:1029D0001091F1012091F2013091F30160277127EC
:1029E000822793271F910F910C94B1140C94AE146D
:1029F0000C94F6140E94F8146093EC017093ED01AE
:102A00008093EE019093EF010C94881160E070E0E8
:102A1000CB010C94FA140F931F9341E050E060E057
:102A200070E08A019B0104C0000F111F221F331F99
:102A30008A95D2F7C901B8011F910F910C94FA142D
:102A40000F931F9341E050E060E070E004C0440F3A
:102A5000551F661F771F8A95D2F78091EC019091E0
:102A6000ED01A091EE01B091EF018A019B01082BCD
:102A7000192B2A2B3B2BC901B8011F910F910C94E4
:102A8000FA140F931F9341E050E060E070E004C03F
:102A9000440F551F661F771F8A95D2F7CB01BA01E5
:102AA00060957095809590950091EC011091ED01E5
:102AB0002091EE013091EF01602371238223932353
:102AC0001F910F910C94FA140F931F9341E050E063
:102AD00060E070E004C0440F551F661F771F8A95A1
:102AE000D2F78091EC019091ED01A091EE01B091AF
:102AF000EF018A019B01082719272A273B27C901D3
:102B0000B8011F910F910C94FA140F931F93009129
:102B1000EC011091ED012091EE013091EF01602B5D
:102B2000712B822B932B1F910F910C94FA140F93FE
:102B30001F930091EC011091ED012091EE01309175
:102B4000EF0160237123822393231F910F910C9433
:102B5000FA140F931F930091EC011091ED01209155
:102B6000EE013091EF0160277127822793271F9193
:102B70000F910C94FA140895E92FEE0F9E0F890F10
:102B8000982F977041E001C0440F9A95EAF7869517
:102B90008695869595E0899FF0011124EE51FE4FB0
:102BA00030E020E070E05191DF011197CB01022E5F
:102BB00002C0969587950A94E2F7817081958527E2
:102BC000842385278C932F5F3F4F2530310559F79C
:102BD0000895E92FEE0F9E0F890F982F9770869515
:102BE0008695869525E0829FF0011124EE51FE4FD7
:102BF00050E040E080E0219130E0092E02C036959F
:102C000027950A94E2F721703327042E01C0220F82
:102C10000A94EAF7822B4F5F5F4F4530510559F711
:102C20000895BF92CF92DF92EF92FF920F931F937E
:102C3000CF93DF938C01C090EC01D090ED01E09038
:102C4000EE01F090EF018091F0019091F101A091DF
:102C5000F201B091F301C82AD92AEA2AFB2ACFE16E
:102C6000D0E0BC2ED701C6010C2E04C0B695A795A6
:102C7000979587950A94D2F780FD0EC0219788F723
:102C8000B12C8B2DDF91CF911F910F91FF90EF9081
:102C9000DF90CF90BF900895B8018C2F0E949207CB
:102CA000019761F3EECFCF93DF93EC010E941116F1
:102CB000BE01DF91CF910C9492071F93CF93DF93C6
:102CC000EB019091A901992331F0CB01DF91CF91D4
:102CD0001F910C945316882379F0CB010E94111692
:102CE000182F682FCE010E94BC15BE01812FDF91E5
:102CF000CF911F910C949207CB010E94E915182FD8
:102D0000F4CF682F80910001909101010C9451182B
:102D1000682F80910001909101010C9453188091CB
:102D20000001909101010C9455188091F401859552
:102D30008595859508958091F40187700895909107
:102D4000F401977081E009F480E008958091000219
:102D5000089590910002892B809300020895809538
:102D6000909100029823909300020895109200021F
:102D700008959091FF01892B8093FF01089580951C
:102D80009091FF0198239093FF0108951092FF0105
:102D900008951092FE0108958091F5010895089517
:102DA0000C94CF169091F501981721F08093F501BE
:102DB0000C94D01608958091F501882329F0109283
:102DC000F50180E00C94D0160895E0910001F09197
:102DD0000101809100028083E0910001F0910101E6
:102DE00080819091FF01892B8083E0910001F09117
:102DF000010180819091FE01892B80839091F501E2
:102E0000992381F0E0910001F09101018081892BEB
:102E1000808380910001909101010E940918811125
:102E20000E94DB1680910001909101010C94CC0C62
:102E300008950C94181798E0899F90011124622B33
:102E40006093F4010E9420158091F4018595859589
:102E500085950C9419171092F40180E00C941917C1
:102E60009091F401809589238093F401282F277095
:102E700071F4282F082E000C330B9217130639F02B
:102E80008595859585950E9441150C942B1708957D
:102E900090939701809396010895829590E09C010C
:102EA000220F331F220F331F2C7C95958795959504
:102EB00087958373282B30E0C901880F991F8A7A80
:102EC000359527952575822B089590E080E00E9426
:102ED0005A2921E08C3E9E4F09F020E0822F089570
:102EE00082E090E00C94522983E090E00C94522907
:102EF000CF9384E090E00E945229C82F81E290E0B5
:102F00000E945229982F8C2FCF910895CF93C92FCB
:102F1000682F84E090E00E9460296C2F81E290E0AD
:102F2000CF910C946029AB01BC018FE090E00C9430
:102F30007229AB01BC0183E190E00C94722960E03E
:102F400070E0CB010C94991760E070E0CB010E9417
:102F500093170C949F176CEE7EEF90E080E00E9438
:102F60007E2960E082E090E00E94602960E083E0DA
:102F700090E00E9460291092F0011092F1011092ED
:102F8000F2011092F30160E084E090E00E94602979
:102F900060E081E290E00E94602960E085E090E0DE
:102FA0000E94602960E086E090E00E9460296FEF57
:102FB00087E090E00E94602940E050E0BA0188E09C
:102FC00090E00E94722960E08DE090E00E9460290C
:102FD00040E050E0BA0188E190E00E94722960E090
:102FE00087E190E00E94602940E050E0BA018CE166
:102FF00090E00E94722960E080E290E00E946029E7
:103000000C94A4170C94AB17682F8EE090E00C94EE
:1030100060299C012E5F3F4FAC01485F5F4F80E00D
:103020002417350709F40895F90191919F01992317
:10303000B9F38F5FF5CF662349F0FC01329608960D
:103040002191261729F0E817F907D1F780E00895B4
:1030500081E008959C01FC0132969FEF80E0419150
:10306000461751F09F3F19F4411101C0982F8F5F0F
:103070008630A9F79F3F09F40895290F311D97FD68
:103080003A95F90162830895FC01329608962191E0
:10309000261303C0DF0111971C92E817F907B9F74F
:1030A00008950C942A180C944418029626E0FC010A
:1030B00011922A95E9F70895089508950C945D18E2
:1030C0000E945E1880913302843049F1109202020E
:1030D00088E190E020E40FB6F894A8958093600012
:1030E0000FBE2093600080E00E9414070E945E18CB
:1030F00083B7817F846083BF83B7816083BF789407
:10310000889583B78E7F83BF0FB6F894A89580917A
:103110006000886180936000109260000FBE089587
:103120000895CF930E945C180E94090A0E9490188B
:10313000C0E08C2F0E946C09811105C0CF5FC330A5
:10314000C1F7CF91089581E0FCCF08950C94A518A4
:103150000E949E110E94C00C0E9414070C94A61895
:103160001F921FB61F9211248F939F93AF93BF930B
:1031700080910202811113C08091290290912A024C
:10318000A0912B02B0912C024196A11DB11D8093FC
:10319000290290932A02A0932B02B0932C02BF9194
:1031A000AF919F918F911F901FBE1F90189582E045
:1031B00084BD93E095BD9AEF97BD80936E0008950E
:1031C0002FB7F8948091290290912A02A0912B02A6
:1031D000B0912C022FBF08952FB7F8946091290267
:1031E00070912A0280912B0290912C022FBF08959A
:1031F0009C014FB7F8948091290290912A02A091E6
:103200002B02B0912C024FBF821B930B0895789430
:103210001F921FB61F9211248F939F93AF93BF935A
:103220008091290290912A02A0912B02B0912C0248
:103230000196A11DB11D8093290290932A02A093AB
:103240002B02B0932C02BF91AF919F918F911F9051
:103250001FBE1F90189587E797E79093010880930A
:10326000000888E19AE00FB6F894A8958093600072
:103270000FBE90936000FFCF0E946517811102C0BE
:103280000E9402180E947017809301020E94781712
:1032900090932E0280932D020E947417682F70E085
:1032A00090E080E00C94BE1480910A0280FF12C06E
:1032B0006091070185E0689FB001112475956795BD
:1032C0007595679560387105A8F561157105A1F1CF
:1032D000862F089581FF09C06091070185E0689FEE
:1032E000B001112475956795EDCF6091070182FDBE
:1032F0000AC0809109028823D1F090910601609163
:103300000701891728F085E0689FB0011124DACF02
:10331000869FB001112485E0869F9001879F300D24
:103320001124692F70E0C9010E942429CBCF65E0E8
:1033300070E0CECF8FE7089581E0089580910A0272
:1033400080FF0CC06091030170E0759567957595DD
:1033500067956115710549F1862F089581FF06C0B3
:103360006091030170E075956795F3CF609103015B
:1033700082FD0BC0909109029923A1F06091020196
:1033800080910301961738F0682F70E0603871055E
:1033900000F38FE70895899FC001112470E00E9417
:1033A0002429F4CF61E070E0D7CF81E00895803F19
:1033B00031F40E945419819580930E020895813F43
:1033C00019F40E945419F8CF823F31F40E94541925
:1033D000819580930D020895833F19F40E9454193A
:1033E000F8CF893F29F40E949E1980930F02089517
:1033F0008A3F21F40E949E198195F7CF8B3F31F4CB
:103400000E949E1981958093100208958C3F19F4B3
:103410000E949E19F8CF843F31F480910C028160A4
:1034200080930C020895853F21F480910C02826004
:10343000F7CF863F21F480910C028460F1CF873F63
:1034400021F480910C028860EBCF883F21F48091B9
:103450000C028061E5CF8D3F31F480910A028160DA
:1034600080930A0208958E3F21F480910A028260BF
:10347000F7CF8F3FB9F780910A028460F1CF909126
:103480000D02803F41F480910E0287FD10920E02E2
:10349000992371F00895813F29F480910E02181646
:1034A000ACF3F6CF823F81F497FFF2CF10920D027A
:1034B00080910E0290910F02892B90911002892B1E
:1034C00049F7109209020895833F19F4191674F30D
:1034D000DFCF893F39F480910F021816CCF6109295
:1034E0000F02D6CF8A3F29F480910F0287FFD0CFF9
:1034F000F6CF8B3F39F48091100287FFC9CF10922D
:103500001002C6CF8C3F29F4809110021816BCF32C
:10351000BFCF843F31F480910C028E7F80930C02E8
:10352000B7CF853F21F480910C028D7FF7CF863F86
:1035300021F480910C028B7FF1CF873F21F48091A1
:103540000C02877FEBCF883F21F480910C028F7EA5
:10355000E5CF8D3F31F480910A028E7F80930A027D
:1035600097CF8E3F21F480910A028D7FF7CF8F3F56
:1035700009F08ECF80910A028B7FF0CF80910102FB
:1035800083FF7EC08AE591E00E94110680910C02C3
:103590001F928F9385E591E09F938F930E94AA06D7
:1035A00083E591E00E94110680910D02282F082EDC
:1035B000000C330B3F938F9380E591E09F938F93A3
:1035C0000E94AA068EE491E00E94110680910E02EC
:1035D000282F082E000C330B3F938F938BE491E040
:1035E0009F938F930E94AA0689E491E00E9411069E
:1035F00080910F02282F082E000C330B3F938F93DE
:1036000086E491E09F938F930E94AA0684E491E060
:103610000E94110680911002282F082E000C330BF7
:103620003F938F9381E491E09F938F930E94AA062A
:103630008EE391E00E941106809109021F928F9300
:103640008BE391E09F938F930E94AA0689E391E018
:103650000E94110680910A021F928F9386E391E0E7
:103660009F938F930E94AA0683E391E00E94110624
:103670008DB79EB74C960FB6F8949EBF0FBE8DBF08
:103680008BE092E00E94180D0E94E01890930802CF
:10369000809307020895CF93DF9300D000D000D02D
:1036A000CDB7DEB786E0EBE0F2E0DE0111960190E7
:1036B0000D928A95E1F780910D0290910E02892B6F
:1036C00081F080910502909106020E94F818AC01E9
:1036D00090910902992331F1809108018417150610
:1036E00070F180910F0290911002892B91F08091DE
:1036F0000302909104020E94F818AC019091090213
:10370000992309F478C0809104018417150608F400
:1037100080C026960FB6F894DEBF0FBECDBFDF91F6
:10372000CF910895209109018AE0289F90011124EA
:1037300024173507B0F69F5F9093090202C09F3FA0
:10374000D1F710920F021092100280910D021816FC
:1037500024F40E94541980930D0280910D0287FF7A
:1037600005C00E945419819580930D0280910E022C
:10377000181624F40E94541980930E0280910E02B0
:1037800087FF05C00E945419819580930E023091E5
:103790000D023323A1F020910E02222381F045EB8C
:1037A0003403C00111249923F1F090930D0245EBED
:1037B0002403900111243323D1F030930E020E9490
:1037C000BE1A80910702909108029093060280939E
:1037D000050286E0FE013196ABE0B2E001900D9269
:1037E0008A95E1F77ECF81E080930D02E0CF81E002
:1037F00080930E02E4CF209105018AE0289F90017A
:1038000011242417350708F084CF9F5F9093090295
:1038100002C09F3FD1F710920D0210920E028091CC
:103820000F02181624F40E949E1980930F028091B3
:103830000F0287FF05C00E949E19819580930F0299
:1038400080911002181624F40E949E198093100291
:103850008091100287FF05C00E949E198195809378
:10386000100230910F023323A1F020911002222385
:1038700081F045EB3403C00111249923F1F09093BA
:103880000F0245EB2403900111243323D1F0309330
:1038900010020E94BE1A8091070290910802909334
:1038A00004028093030286E0FE013196ABE0B2E0B1
:1038B00001900D928A95E1F72CCF81E080930F0261
:1038C000E0CF81E080931002E4CF86E0EBE0F2E00D
:1038D000DF011D928A95E9F71092090210920A02FF
:1038E00008958DE793E00E9411061F9281E08F9367
:1038F0001F9285E08F938FE293E09F938F930E94B6
:10390000AA060F900F900F900F900F900F900895B0
:10391000833009F445C028F4813061F0823049F1E8
:103920000895853009F46AC008F451C0863009F45E
:103930007CC0089580910901482F460F5527551FD7
:103940004F3F510594F4680F60930901809109017C
:103950001F928F9388E692E09F938F930E94AA060E
:103960000F900F900F900F9008958FEF80930901A3
:10397000EDCF80910801482F460F5527551F4F3F27
:10398000510554F4680F60930801809108011F925B
:103990008F9386E592E0E0CF8FEF80930801F5CF1B
:1039A00080910701482F460F5527551F4F3F51055E
:1039B00054F4680F60930701809107011F928F9361
:1039C00083E492E0C9CF8FEF80930701F5CF809118
:1039D0000601482F460F5527551F4F3F510554F4F8
:1039E000680F60930601809106011F928F938EE20B
:1039F00092E0B2CF8FEF80930601F5CF8091030163
:103A0000482F460F5527551F4F3F510554F4680F57
:103A100060930301809103011F928F9385E192E0EF
:103A20009BCF8FEF80930301F5CF80910201482F48
:103A3000460F5527551F4F3F510554F4680F6093AB
:103A40000201809102011F928F938AEF91E084CF4F
:103A50008FEF80930201F5CF8330C9F128F48130D4
:103A600061F0823019F10895853009F452C008F4EC
:103A70003FC0863009F45EC008958091090168173F
:103A800090F4861B80930901809109011F928F9306
:103A90008BEE91E09F938F930E94AA060F900F9058
:103AA0000F900F90089510920901EECF80910801B8
:103AB000681750F4861B80930801809108011F92BB
:103AC0008F9389ED91E0E6CF10920801F6CF8091B7
:103AD0000701681750F4861B809307018091070146
:103AE0001F928F9386EC91E0D5CF10920701F6CF0D
:103AF00080910601681750F4861B8093060180911F
:103B000006011F928F9381EB91E0C4CF10920601C2
:103B1000F6CF80910301681750F4861B8093030150
:103B2000809103011F928F9388E991E0B3CF1092A7
:103B30000301F6CF80910201681750F4861B809331
:103B40000201809102011F928F938DE791E0A2CF35
:103B500010920201F6CFCF93C82F1F928F9382E865
:103B600094E09F938F930E94AA0661E070E080E04A
:103B700090E004C0660F771F881F991FCA95D2F77F
:103B80000E94BE140F900F900F900F90CF910C9445
:103B90009E11CF93DF938B3109F4FEC108F0A0C1D1
:103BA0008B3009F4BCC108F06AC1863009F4CAC17F
:103BB00048F4853009F4A2C181E299E00E9411061F
:103BC00080E0D0C1873009F4D0C18830A9F780ECFB
:103BD00099E00E94110681E199E00E9411060E947D
:103BE00074171F928F938EE099E09F938F930E949A
:103BF000AA068CE099E00E9411060E947017C82F57
:103C000089EF98E00E9411061F92CF9384EF98E00D
:103C10009F938F930E94AA0682EF98E00E9411065C
:103C200088EE98E00E9411068C2F81701F928F936E
:103C300085EE98E09F938F930E94AA0683EE98E00A
:103C40000E94110689ED98E00E941106C1FB8827A9
:103C500080F91F928F9386ED98E09F938F930E9437
:103C6000AA0684ED98E00E94110688EC98E00E9474
:103C70001106C2FB882780F91F928F9385EC98E08C
:103C80009F938F930E94AA0683EC98E00E941106EE
:103C90008AEB98E00E941106C3FBCC27C0F91F9263
:103CA000CF9387EB98E09F938F930E94AA0685EBB2
:103CB00098E00E9411060E947817EC0181EA98E0D2
:103CC0000E941106DF93CF938CE998E09F938F9326
:103CD0000E94AA068AE998E00E94110681E898E00D
:103CE0000E9411068C2F81701F928F938EE798E0AF
:103CF0009F938F930E94AA068DB79EB780960FB6AA
:103D0000F8949EBF0FBE8DBF8CE798E00E9411060D
:103D100085E698E00E941106C1FB882780F91F9272
:103D20008F9382E698E09F938F930E94AA0680E685
:103D300098E00E9411068EE498E00E9411068D2FF3
:103D400081701F928F938BE498E09F938F930E94D2
:103D5000AA0689E498E00E94110687E398E00E9491
:103D60001106D695D1701F92DF9384E398E09F935C
:103D70008F930E94AA0682E398E00E94110680E2D7
:103D800098E00E941106C2FB882780F91F928F934A
:103D90008DE198E09F938F930E94AA068BE198E0B3
:103DA0000E94110689E098E00E941106C3FB882753
:103DB00080F91F928F9386E098E09F938F930E94E3
:103DC000AA0684E098E00E9411068AEF97E00E941C
:103DD0001106C4FB882780F91F928F9387EF97E025
:103DE0009F938F930E94AA0685EF97E00E94110689
:103DF00083EE97E00E941106C5FB882780F91F9289
:103E00008F9380EE97E09F938F930E94AA068EED8A
:103E100097E00E94110682EC97E00E941106C6FB13
:103E2000882780F91F928F938FEB97E09F938F9352
:103E30000E94AA068DB79EB780960FB6F8949EBFD3
:103E40000FBE8DBF8DEB97E00E94110685EB97E0CA
:103E50000E941106C7FBCC27C0F91F92CF9382EBBB
:103E600097E09F938F930E94AA0680EB97E00E94B1
:103E700011060F900F900F900F9081E073C080316A
:103E800009F4A2C080F48E3009F096CE9091010220
:103E9000892F8B7F92FF84608093010282FF91C003
:103EA0008CE499E085C0863109F49EC0893109F01F
:103EB00083CE87ED95E00E9411068EEB95E00E947F
:103EC000110684E895E00E94110681E595E00E94C4
:103ED00011068BE195E00E94110680EF94E021C06D
:103EE0008A3249F190F4873211F128F48E3108F4C6
:103EF00063CE8D511DC0893209F05ECE8FE899E006
:103F00000E9411060E941D07B8CF833468F48A33DB
:103F100008F0A1C0853359F0883309F04DCE8DE00B
:103F200096E00E941106A9CF833409F045CE80E0C7
:103F30000E94AB1DA2CF8FEA99E00E9411060E9459
:103F400002189BCF80910102807F8093010286EE50
:103F500095E00E9411068BEA99E00E94110681E02B
:103F600080931202DF91CF91089590910102892FE1
:103F70008E7F90FF81608093010280FF03C083E801
:103F800099E0CFCF86E799E00E9411068091010267
:103F9000817F8093010271CF90910102892F8D7FE3
:103FA00091FF82608093010281FF08C089E699E059
:103FB0000E941106809101028160EBCF8BE599E0B0
:103FC000B0CF8CE399E0ADCF90910102892F877F2C
:103FD00093FF88608093010283FF03C080E399E030
:103FE000E7CF83E299E09DCF82EE94E00E94110634
:103FF0000E94C00C1F928F9388EC94E09F938F9344
:104000000E94AA06809114011F928F9381EB94E085
:104010009F938F930E94AA0680911F021F928F93F5
:104020008EE994E09F938F930E94AA060E94EC1859
:104030009F938F937F936F9387E894E09F938F93E1
:104040000E94AA068DB79EB742960FB6F8949EBFFF
:104050000FBE8DBF12CF89536BCF80E008950C94B3
:104060002D208E518A3030F4E82FF0E0E358FE4FD7
:104070008081089580E00895CF93C82F8091120227
:104080008130C1F0882339F0823009F447C01092A2
:10409000120280E00DC00E94A6168232D1F78C2F4A
:1040A0000E942D2081111BC08C2F0E94C91D817080
:1040B000CF9108950E94A616823289F38C2F0E9418
:1040C0002F2081111BC0C431D9F060F4CB3071F0C6
:1040D000C031D1F088E794E00E94110613C081E05E
:1040E00090E0E5CFC93261F0C833A1F786EE95E0E4
:1040F0000E9411068EE794E00E94110681E0D7CF5E
:104100001092120280E0D3CF0E94711C8AE794E0E3
:104110000E94110682E080931202F0CFC432C8F4EC
:10412000CE3108F0BEC0CB30E1F040F4C73009F426
:10413000CCC08CE193E00E94110626C0C331C1F1CE
:10414000C431B9F780911102882351F11092110204
:104150000AC0CB3409F4B7C0C8F4C93299F3C833E4
:1041600041F70E94711C80911102882309F4C4C098
:104170001F928F9386E193E09F938F930E94AA06EC
:104180000F900F900F900F9081E092CFC13509F4FE
:1041900094C0C23509F48BC0CE3459F66AE08EC0A3
:1041A0008BE293E00E94110681E08093120280CF9F
:1041B00085E093E00E94110683EF92E00E941106D1
:1041C000809109011F928F9380EF92E09F938F93CC
:1041D0000E94AA068EEE92E00E9411068CED92E0FB
:1041E0000E941106809108011F928F9389ED92E041
:1041F0009F938F930E94AA0687ED92E00E9411067A
:1042000088EC92E00E941106809107011F928F9323
:1042100085EC92E09F938F930E94AA0683EC92E034
:104220000E94110682EB92E00E9411068091060125
:104230001F928F938FEA92E09F938F930E94AA061A
:104240008DEA92E00E94110688E992E00E94110630
:10425000809103011F928F9385E992E09F938F9342
:104260000E94AA0683E992E00E9411068CE792E080
:104270000E941106809102011F928F9389E792E0BC
:104280009F938F930E94AA0687E792E00E941106EF
:104290008DB79EB748960FB6F8949EBF0FBE8DBFE0
:1042A00062CF8C2F0E943120809311025CCF61E09D
:1042B000809111020E94881C56CF61E0809111020A
:1042C0000E942C1D50CF6AE0F3CF8EE1809309014C
:1042D00082E3809308018AE08093070184E1809360
:1042E000060188E08093030188E2809302018EE159
:1042F00093E00E94110637CF83E193E01CCF8091B9
:104300001E0208959FB7F894109215029FBF9091D6
:104310003302943009F048C02091E9002F703091A9
:10432000EC00932F917030FD90E8922B23E02093C6
:10433000E9002091EB0020FF34C02091EE0027FF20
:1043400030C020911302222321F02091E80025FFA4
:1043500028C01092130226E03091E80035FF14C007
:104360008093F1008091E80085FD27C08091E800EE
:1043700080FFFCCF8091E8008E778093E8009F70EB
:104380009093E90080E0089530913302343049F48D
:104390003091EB0035FD05C0215041F481E0809360
:1043A00013029F709093E9008FEF0895EFE9FFE00B
:1043B0003197F1F700C00000CFCF8FB7F89421E01C
:1043C000209315028FBFDBCFCF93DF9300D00F92E6
:1043D000CDB7DEB790913302943019F589837B8392
:1043E0006A8382E08093E9008FEF9091E80081502A
:1043F00095FD06C095ED9A95F1F700008111F5CF76
:104400008091E80085FF0DC050E040E063E070E07F
:10441000CE0101960E9488248091E8008E778093D7
:10442000E8000F900F900F90DF91CF910895CF93F8
:10443000DF93EC010E946B24823011F0843031F460
:10444000BE0184E0DF91CF910C94E421DF91CF9104
:104450000895BC0183E00C94E421CF93DF93EC0139
:104460000E946B24823011F08430F9F482E0809352
:10447000E9008FEF9091E800815095FD06C095ED21
:104480009A95F1F700008111F5CF8091E80085FF42
:104490000CC050E040E066E070E0CE010E9488244D
:1044A0008091E8008E778093E800DF91CF910895A6
:1044B000CF93DF93EC010E946B24823011F08430A3
:1044C00039F581E08093E9008FEF9091E800815009
:1044D00095FD06C095ED9A95F1F700008111F5CF95
:1044E0008091E80085FF14C050E040E068E070E093
:1044F000CE010E9488248091E8008E778093E800A6
:1045000088E0FE01A6E1B2E001900D928A95E1F704
:10451000DF91CF91089580EF99E00E94110680917C
:104520003202811109C00E9418260E9475268091CE
:10453000E20084608093E20008958CEE99E00E948E
:10454000110610923202089588EE99E00C9411063B
:1045500084EE99E00C94110680EE99E00E94110619
:104560000C94A818209114022F5F822F62E30E94FE
:104570001829992319F02093140208951092140217
:10458000809115028823F1F0809133028430C1F4C8
:104590009091E9009F702091EC00822F817020FDA6
:1045A00080E8892B93E09093E9009091EB0090FFD5
:1045B00004C09091EE0097FD08C08F708093E900D1
:1045C0001092150208951092F1009091E80095FD67
:1045D000FACF9091E80090FFF0CF9091E8009E779D
:1045E0009093E800EACF42E061EC81E00E949425DC
:1045F00042E261EC82E00E94942542E261EC83E0B9
:104600000C94942580913502833009F45FC030F416
:104610008130C1F1823009F49BC008958A3009F4D9
:1046200087C08B3009F46DC0893009F04EC080918D
:104630003402813209F049C08091380290913902E8
:10464000029708F042C08091E800877F8093E800DD
:104650008091E80082FF35C09091F3008091F200D4
:10466000029729F48091F1008B7F813021F48091B1
:10467000F10080931E028091E8008B778093E80020
:104680000C94C82580913402813AF9F48091E800B5
:10469000877F8093E8008091380290913902892BBE
:1046A00061F468E086E192E070E00E94D724809196
:1046B000E8008B778093E800089560E090E080E068
:1046C000F3CF809133028111C3CF089580913402DA
:1046D000813AD9F78091380290913902892BA9F754
:1046E0008091E800877F8093E8008091E80080FF58
:1046F000FCCF809114018093F1008091E8008E77C7
:10470000BDCF80913402813201F7809138029091BF
:104710003902892BD1F68091E800877F8093E800E9
:104720000E94C82580913602809314010C949E113A
:1047300080913402813249F68091E800877F80932E
:10474000E8000E94C8258091370280931F020895D7
:1047500080913402813A09F0B8CF8091E800877FD8
:104760008093E8008091E80080FFFCCF80911F02D9
:10477000C2CF84B7877F84BF0FB6F894A895809185
:104780006000886180936000109260000FBE80E836
:1047900090E00FB6F89480936100909361000FBE93
:1047A0000E94600D0E9418260E9475268091E200EA
:1047B00084608093E20082E891E20E944817789436
:1047C0000E94FD280E946A0D8AE091E00E94BB0CC5
:1047D0008FEC99E00E94110680913302853019F028
:1047E0000E949A0DF9CF8BEC99E00E9411060E946D
:1047F000601880913102882379F30E9491188823F0
:1048000059F30E947224E8CF0C940624292F3327F1
:104810002330310521F168F42130310509F449C014
:104820002230310509F44AC090E080E030E020E019
:1048300029C02132310581F122323105A9F76330D7
:10484000710590F7FB01EE0FFF1FE657FE4F208129
:10485000318169577E4FFB01808190E013C0992719
:104860008130910599F0009741F08230910589F0EF
:104870000397D1F6E4EFF9E002C0E4E2FAE08491B4
:1048800090E09F01FA01318320830895E0E2FAE08D
:10489000F6CFEAEFF9E0F3CF6330710528F6660F43
:1048A000771FFB01E057FE4F2081318189E090E0C6
:1048B000E9CF82E190E023E83AE0E4CF8BE590E0B5
:1048C00028E23AE0DFCF80913302843011F482E0B5
:1048D000089581E0089580912002811102C00C9416
:1048E0006324089580E189BD82E189BD09B400FE99
:1048F000FDCF8091D8008F7D8093D8008091E0001B
:1049000082608093E0008091E00081FDFCCF0895FB
:10491000AF92BF92CF92DF92FF920F931F93CF93EC
:10492000DF936C01EB018A010E94E725F82E8111CB
:1049300023C00115110539F0F80180819181C81B50
:10494000D90BC80ED91EB12CA12C2097A9F08091AB
:10495000E80085FD22C08091E8008E778093E80012
:1049600001151105A1F0F80180819181A80EB91EF1
:10497000B182A08285E0F82E8F2DDF91CF911F911B
:104980000F91FF90DF90CF90BF90AF9008950E945D
:10499000E7258823D1F2F82EEFCFF60181916F0140
:1049A0008093F1002197FFEFAF1ABF0ACECFFC0131
:1049B00080913A0290913B0286179707A0F061150B
:1049C000710529F49091E8009E779093E80090E0BB
:1049D0006115710551F4911108C08091E80082FFC2
:1049E00034C080E00895BC01F2CF80913302882367
:1049F000C1F18530C1F18091E80083FD30C0809124
:104A0000E80082FDEACF8091E80080FFE1CF80914D
:104A1000F3002091F200382F6115710519F028304C
:104A2000310558F091E02830310509F090E02091EF
:104A3000E8002E772093E800CBCF81918093F1009E
:104A4000615071092F5F3F4FE7CF80913302882378
:104A500041F0853041F08091E80083FFBECF81E0D6
:104A6000089582E0089583E00895FC0180913A0260
:104A700090913B0286179707A0F06115710529F404
:104A80008091E8008E778093E80090E061157105D1
:104A900051F4911108C08091E80082FF35C080E098
:104AA0000895BC01F2CF809133028823C9F185308B
:104AB000C9F18091E80083FD31C08091E80082FD5A
:104AC000EACF8091E80080FFE1CF8091F300209150
:104AD000F200382F6115710519F02830310558F0B2
:104AE00091E02830310509F090E08091E8008E7760
:104AF0008093E800CBCF84918093F1003196615090
:104B000071092F5F3F4FE6CF80913302882341F038
:104B1000853041F08091E80083FFBDCF81E00895AA
:104B200082E0089583E00895982F973028F08F70E1
:104B30008093E90081E008959093E900242F762F77
:104B400050E0981731F07091EC002091ED005091F9
:104B5000F00021FD02C09F5FE8CF3091EB003E7F67
:104B60003093EB003091ED003D7F3093ED003091BC
:104B7000EB0031603093EB007093EC002093ED007C
:104B80005093F0002091EE0027FDE5CF80E00895DE
:104B90008091340287FF13C08091E80082FF06C035
:104BA0008091E8008B778093E80004C08091330205
:104BB0008111F2CF0895809133028823D9F3809137
:104BC000E80080FFF8CF8091E8008E77ECCF20914D
:104BD000E4003091E50095E6A9012091EC00822FD8
:104BE000817020FF06C08091E80080FF06C080E051
:104BF00008952091E80022FD1AC080913302882395
:104C000089F0853089F08091EB0085FD0FC02091FF
:104C1000E4003091E50042175307F9F29150E1F6B4
:104C200084E0089582E0089583E0089581E0089586
:104C30000E9486260E948E26E0EEF0E08081816050
:104C40008083E8EDF0E080818F77808319BCA7ED49
:104C5000B0E08C918E7F8C9380818F7E80831092C8
:104C6000320208950F931F93CF93DF930E948626FD
:104C70000E948E26C8EDD0E088818F778883888156
:104C80008068888388818F7D888319BC1092330265
:104C900010922F02109231021092300200EE10E0BA
:104CA000F80180818B7F808388818160888342E0E6
:104CB00060E080E00E949425E1EEF0E080818E7F4C
:104CC0008083E2EEF0E08081816080838081886073
:104CD0008083F80180818E7F8083888180618883D2
:104CE000DF91CF911F910F910895E8EDF0E0808161
:104CF0008F7E8083E7EDF0E080818160808384E0B7
:104D000082BF81E0809332020C943226E8EDF0E01D
:104D100080818E7F80831092E20008951092DA00E5
:104D20001092E10008951F920F920FB60F92112476
:104D30002F933F934F935F936F937F938F939F93A3
:104D4000AF93BF93EF93FF938091E10082FF0BC07D
:104D50008091E20082FF07C08091E1008B7F809309
:104D6000E1000E94B2228091DA0080FF19C0809198
:104D7000D80080FF15C08091DA008E7F8093DA0022
:104D80008091D90080FF96C080E189BD82E189BD14
:104D900009B400FEFDCF81E0809333020E948B2294
:104DA0008091E10080FF19C08091E20080FF15C072
:104DB0008091E2008E7F8093E2008091E20080612A
:104DC0008093E2008091D80080628093D80019BC63
:104DD00085E0809333020E94A8228091E10084FF45
:104DE0002BC08091E20084FF27C080E189BD82E171
:104DF00089BD89B5982F917080FFFBCF8091D80035
:104E00008F7D8093D8008091E1008F7E8093E100B8
:104E10008091E2008F7E8093E2008091E2008160C9
:104E20008093E20080912F02882309F449C084E036
:104E3000809333020E94AC228091E10083FF29C05D
:104E40008091E20083FF25C08091E100877F8093FD
:104E5000E10082E08093330210922F028091E10002
:104E60008E7F8093E1008091E2008E7F8093E2004C
:104E70008091E20080618093E20042E060E080E0A7
:104E80000E9494258091F00088608093F0000E9439
:104E9000A422FF91EF91BF91AF919F918F917F914C
:104EA0006F915F914F913F912F910F900FBE0F9097
:104EB0001F90189519BC109233020E949D2270CF4A
:104EC0008091E30087FD93E090933302B3CF1F926C
:104ED0000F920FB60F9211242F933F934F935F932E
:104EE0006F937F938F939F93AF93BF93CF93DF93F2
:104EF000EF93FF93D091E900DF708091EC00C82F11
:104F0000C17080FDC0E81092E9008091F000877FB9
:104F10008093F00078940E94AB271092E900809172
:104F2000F00088608093F000CD2BCF70C093E90033
:104F3000FF91EF91DF91CF91BF91AF919F918F91B1
:104F40007F916F915F914F913F912F910F900FBE85
:104F50000F901F9018951F93CF93DF93CDB7DEB7B7
:104F6000AA970FB6F894DEBF0FBECDBF84E392E0E0
:104F70002091F100FC012193CF01F2E08C339F07D7
:104F8000B9F70E9402238091E80083FF1EC180913F
:104F90003402909135029A3008F017C1E92FF0E001
:104FA000E055F64D0C943829803899F0823809F094
:104FB0000CC1809138028F70873008F006C1809351
:104FC000E9008091EB0085FB882780F91092E900C9
:104FD00006C08091300290913102911182609091CF
:104FE000E800977F9093E8008093F1001092F10021
:104FF0008091E8008E77E5C0882309F4D3C0823021
:1050000009F0E3C0809136028111D6C08091380248
:105010008F702FEF280F263008F0D7C08093E9005B
:105020002091EB0020FFC8C0933031F48091EB0059
:1050300080628093EB00C0C09091EB0090619093F0
:10504000EB0021E030E001C0220F8A95EAF72093BF
:10505000EA001092EA008091EB008860EACF8111AB
:10506000B4C0109136021F778091E3008078812BC5
:105070008093E3008091E800877F8093E8000E949E
:10508000C8258091E80080FFFCCF8091E300806814
:105090008093E30082E0111183E08093330295C096
:1050A0008058823008F091C080913602909137028A
:1050B0008C3D23E09207A1F583E08A838AE289830D
:1050C0004FB7F894DE01139620E03EE051E2E32F63
:1050D000F0E050935700E49120FF03C0E295EF7099
:1050E0003F5FEF708E2F90E0EA30C0F0C7968D934F
:1050F0009D932F5F243159F74FBF8091E800877F40
:105100008093E8006AE270E0CE0101960E94D72405
:105110008091E8008B778093E80057C0C096E7CF76
:105120006091380270913902AE014F5F5F4F0E946B
:105130000424BC01892B09F448C09091E800977FB2
:105140009093E80089819A810E943525E1CF8038CB
:10515000E1F58091E800877F8093E80080912F023D
:105160008093F10045CF811130C09091360292308A
:1051700060F58091E800877F8093E80090932F028C
:105180000E94C82580912F02882311F084E005C079
:105190008091E30087FDFACF81E0809333020E9483
:1051A000F32213C080913602813079F481E093308C
:1051B00009F080E0809331021092E9008091E800CC
:1051C000877F8093E8000E94C8258091E80083FFD4
:1051D0000AC08091E800877F8093E8008091EB000F
:1051E00080628093EB00AA960FB6F894DEBF0FBEE4
:1051F000CDBFDF91CF911F910895CF93809133025E
:105200008823A1F0C091E900CF709091EC00892F24
:10521000817090FD80E8C82B1092E9008091E80031
:1052200083FD0E94AB27CF70C093E900CF91089512
:10523000991B79E004C0991F961708F0961B881FE8
:105240007A95C9F78095089597FB072E16F4009478
:1052500007D077FD09D00E943E2907FC05D03EF417
:10526000909581959F4F0895709561957F4F089512
:10527000EE0FFF1F0590F491E02D0994AA1BBB1BB4
:1052800051E107C0AA1FBB1FA617B70710F0A61B46
:10529000B70B881F991F5A95A9F780959095BC0167
:1052A000CD010895F999FECF92BD81BDF89A992755
:1052B00080B50895A8E1B0E042E050E00C94862962
:1052C000262FF999FECF92BD81BDF89A019700B4BF
:1052D000021639F01FBA20BD0FB6F894FA9AF99A5F
:1052E0000FBE08950396272F0E9461290E9460290E
:1052F000252F0E946129242F0C9461290196272FC4
:105300000E9461290C946029DC01CB01FC01F99910
:10531000FECF06C0F2BDE1BDF89A319600B40D9201
:1053200041505040B8F70895F894FFCF400F400F18
:10533000980F980FEA0F06106D0F6D0F4810D410DC
:10534000E310E310AD11AD11B611B611B811B611DD
:10535000B611B611AD11AD11BD11B611B611BD1119
:10536000D427FC27E528FC27E5282F285028E52806
:04537000A728B3288F
:10537400F6012808641E140A321E7F2158222D22A9
:105384002922172201E200E900EA00B500B600B7BD
:1053940000CD008301CC008A0192019401210223F3
:1053A4000224022502260227022A02B300B4006F57
:1053B4000070008182833534C6363233E200E9005E
:1053C400EA00B500B600B700CD008301CC008A0125
:1053D40092019401210223022402250226022702BB
:1053E4002A02B300B4006F007000818283010203BB
:1053F40004050607080900408122380BB70A950AFC
:065404003A0A530A6C0A8B
:00000001FF
