:100000000C94BC050C9403060C9403060C94030694
:100010000C9403060C9403060C9403060C9403063C
:100020000C9403060C9403060C949B270C946F28E5
:100030000C94B8190C9403060C9403060C94030654
:100040000C9403060C9403060C9403060C9403060C
:100050000C9403060C940F1A0C9403060C940306DC
:100060000C9403060C9403060C9403060C940306EC
:100070000C9403060C9403060C9403060C940306DC
:100080000C9403060C9403060C9403060C940306CC
:100090000C9403060C9403060C9403060C940306BC
:1000A0000C9403060C9403060C94030650005100B4
:1000B0004F00AC005200AB00AD00AE00A8004445BC
:1000C0004255473A2064697361626C65642E0A0088
:1000D00044454255473A20656E61626C65642E0A5C
:1000E000000A0025303862003A20002530325800DE
:1000F0000A722F632030313233343536370A000A22
:10010000002530325820006B6579626F6172645F40
:100110007265706F72743A20000A00253032580000
:100120006B6579626F6172645F7365745F6C65643F
:100130003A2000290A002575002F002575005D284A
:1001400000256400200025640020002564002000B4
:100150002564007C0025303258006D6F7573656B27
:100160006579205B62746E7C782079207620685DEA
:10017000287265702F61636C293A205B006D6B5F9C
:10018000776865656C5F74696D655F746F5F6D61DD
:1001900078203D2025640A006D6B5F776865656C8B
:1001A0005F6D61785F7370656564203D2025640A2A
:1001B000006D6B5F74696D655F746F5F6D61782052
:1001C0003D2025640A006D6B5F6D61785F7370651B
:1001D0006564203D2025640A006D6B5F696E74655F
:1001E0007276616C203D2025640A006D6B5F64654A
:1001F0006C6179203D2025640A006D6B5F7768652E
:10020000656C5F74696D655F746F5F6D6178203DCB
:100210002025640A006D6B5F776865656C5F6D61B2
:10022000785F7370656564203D2025640A006D6BFE
:100230005F74696D655F746F5F6D6178203D202527
:10024000640A006D6B5F6D61785F73706565642033
:100250003D2025640A006D6B5F696E74657276617E
:100260006C203D2025640A006D6B5F64656C6179CC
:10027000203D2025640A000A00257500363A2077C3
:100280006865656C5F74696D655F746F5F6D6178DB
:100290003A20000A00257500353A20776865656CBC
:1002A0005F6D61785F73706565643A20000A0025B0
:1002B0007500343A2074696D655F746F5F6D6178A5
:1002C0003A20000A00257500333A206D61785F738B
:1002D000706565643A20000A00257500323A20698D
:1002E0006E74657276616C286D73293A20000A007D
:1002F000257500313A2064656C6179282A31306DAA
:1003000073293A20000A092D2056616C7565732007
:100310002D0A004D3E004D25643E20003F007365D0
:10032000742064656661756C740A00433E20007732
:10033000686572652064656C74613A2063757273D8
:100340006F723D25642C20776865656C3D25640AD5
:1003500053656520687474703A2F2F656E2E776927
:100360006B6970656469612E6F72672F77696B695D
:100370002F4D6F7573655F6B6579730A000A092DE0
:10038000204D6F7573656B6579202D0A4553432F9A
:10039000713A09717569740A313A0964656C617959
:1003A000282A31306D73290A323A09696E746572F0
:1003B00076616C286D73290A333A096D61785F7331
:1003C000706565640A343A0974696D655F746F5FBE
:1003D0006D61780A353A09776865656C5F6D61789B
:1003E0005F73706565640A363A09776865656C5FA6
:1003F00074696D655F746F5F6D61780A0A703A09A0
:100400007072696E742076616C7565730A643A095E
:100410007365742064656661756C74730A75703AEF
:10042000092B310A646F776E3A092D310A706775AE
:10043000703A092B31300A7067646F776E3A092D74
:1004400031300A0A7370656564203D2064656C7400
:1004500061202A206D61785F7370656564202A20B1
:1004600028726570656174202F2074696D655F74F2
:100470006F5F6D6178290A003F004D3E2000433ECA
:1004800020004C25640A0074696D65725F726561B5
:1004900064333228293A202530346C580A006B65C1
:1004A00079626F6172645F69646C653A2025580AED
:1004B000006B6579626F6172645F70726F746F63F5
:1004C0006F6C3A2025580A00686F73745F6B65790A
:1004D000626F6172645F6C65647328293A202558E5
:1004E0000A000A092D20537461747573202D0A00C7
:1004F0004743433A20382E332E30204156522D4C5C
:100500004942433A20322E302E30204156525F412C
:100510005243483A20617672350A004F5054494F91
:100520004E533A204C554641204D4F5553454B456F
:10053000592045585452414B455920434F4E534F33
:100540004C4520434F4D4D414E4420343039360AFE
:10055000004255494C443A2022302E392E32312D5A
:1005600035312D6762643463363622202831363ABD
:1005700030383A3239204A756C20203220323032FD
:1005800030290A005649443A2030784645454428E7
:1005900029205049443A20307830303030284661A4
:1005A000726577656C6C204D6163726F7061642950
:1005B000205645523A203078303030310A004445D8
:1005C00053433A204661726577656C6C204D6163D8
:1005D000726F7061640A000A092D20566572736992
:1005E0006F6E202D0A000A092D20436F6E736F6C09
:1005F00065202D0A4553432F713A09717569740AB4
:100600006D3A096D6F7573656B65790A000A092D7E
:10061000204D61676963202D0A443A09446562757B
:1006200067204D65737361676520546F67676C65FC
:100630000A583A094D617472697820446562756799
:10064000204D6F646520546F67676C65202D2053C3
:10065000686F77206B657970726573736573206955
:100660006E206D617472697820677269640A4B3A12
:10067000094B6579626F6172642044656275672019
:10068000546F67676C65202D2053686F77206B650A
:10069000797072657373207265706F72740A4D3A67
:1006A000094465627567204D6F75736520546F67E7
:1006B000676C650A563A0956657273696F6E0A531C
:1006C0003A095374617475730A433A094163746952
:1006D0007661746520436F6E736F6C65204D6F6437
:1006E000650A46312D4631303A095377697463689B
:1006F00020746F204C6179657220302D3920284696
:100700003130203D204C30290A302D393A095377B9
:100710006974636820746F204C6179657220302D94
:10072000390A47524156453A09537769746368203C
:10073000746F204C6179657220302028616C74657B
:10074000726E617465290A423A094A756D702074A7
:100750006F20426F6F746C6F616465720A4553431A
:100760003A094A756D7020746F20426F6F746C6F18
:10077000616465722028616C7465726E61746529AC
:100780000A453A095072696E7420454550524F4DE2
:100790002053657474696E67730A42535041434530
:1007A0003A09436C65617220454550524F4D0A002D
:1007B0000A002575002E6E6B726F3A20000A002524
:1007C00075002E737761705F6261636B736C617328
:1007D000685F6261636B73706163653A20000A0051
:1007E0002575002E737761705F67726176655F654E
:1007F00073633A20000A002575002E6E6F5F6775DF
:10080000693A20000A002575002E737761705F72C7
:10081000616C745F726775693A20000A0025750083
:100820002E737761705F6C616C745F6C6775693A89
:1008300020000A002575002E737761705F72637463
:100840006C5F726775693A20000A002575002E7387
:100850007761705F6C63746C5F6C6775693A2000D8
:100860000A002575002E636170736C6F636B5F7493
:100870006F5F636F6E74726F6C3A20000A002575AB
:10088000002E737761705F636F6E74726F6C5F635D
:100890006170736C6F636B3A20000A002530325828
:1008A000006B65796D61705F636F6E6669672E724C
:1008B00061773A20000A002575002E6D6F7573650B
:1008C0003A20000A002575002E6B6579626F61720F
:1008D000643A20000A002575002E6D6174726978F3
:1008E0003A20000A002575002E656E61626C653A3B
:1008F00020000A00253032580064656275675F6326
:100900006F6E6669672E7261773A20000A0025755E
:100910000064656661756C745F6C617965723A201C
:10092000003F000A6D6F7573653A206F66660A00B6
:100930000A6D6F7573653A206F6E0A000A6B6579F0
:10094000626F6172643A206F66660A000A6B6579AD
:10095000626F6172643A206F6E0A000A6D61747290
:1009600069783A206F66660A000A6D617472697868
:100970003A206F6E0A000A64656275673A206F66F6
:10098000660A000A64656275673A206F6E0A000A9B
:100990000A4A756D70696E6720746F20626F6F749C
:1009A0006C6F616465722E2E2E2000433E20004342
:1009B0006C656172696E6720454550524F4D0A0063
:1009C0006565636F6E6669673A0A005B735D004B2D
:1009D0006579626F6172642073746172742E0A00AB
:1009E0005B575D005B535D005B525D005B445D00E7
:1009F0005B435D00040330000000240346006100F7
:100A000072006500770065006C006C0020004D00EE
:100A10006100630072006F007000610064000000FC
:100A2000020300000403090409025B00030100A0A3
:100A3000FA0904000001030101000921110100016C
:100A40002240000705810308000A09040100010390
:100A50000000000921110100012281000705820325
:100A600020000A090402000203000000092111010C
:100A7000000122220007058303200001070503036C
:100A80002000011201100100000008EDFE0000012D
:100A900000010203010631FF0974A1010975150067
:100AA00026FF009520750881020976150026FF00B3
:100AB000952075089102C005010902A1018502096E
:100AC00001A10005091901290515002501950575E4
:100AD0000181029501750381010501093009311574
:100AE00081257F95027508810609381581257F9536
:100AF0000175088106050C0A38021581257F9501CC
:100B000075088106C0C005010980A101850319018E
:100B10002AB700150126B700950175108100C005A0
:100B20000C0901A101850419012AA002150126A0C2
:100B300002950175108100C005010906A101050794
:100B400019E029E715002501950875018102950135
:100B5000750881010507190029FF150026FF00957A
:100B6000067508810005081901290595057501918B
:100B700002950175039101C011241FBECFEFDAE089
:100B8000DEBFCDBF04B603FE27C080915602909110
:100B90005702A0915802B09159028730904BA7405C
:100BA000B04BD1F410925602109257021092580294
:100BB0001092590214BE84B7877F84BF0FB6F89491
:100BC000A895809160008861809360001092600019
:100BD0000FBEE0E0F8E3099511E0A0E0B1E0E4E841
:100BE000F5E502C005900D92AA3AB107D9F722E0C7
:100BF000AAEAB1E001C01D92A635B207E1F70E9452
:100C0000C1240C949C2A0C940000FF93EF93E09174
:100C1000AA01F091AB01309709F00995EF91FF918E
:100C20000895FC018591803011F0EFDFFBCF08952E
:100C3000FF27E0E230E247FF0CC0419597FF09C073
:100C4000EDE26095709580959095611D711D811DF7
:100C5000911D27FF02C0219530E350E2AA27660FBD
:100C6000771F881F991FAA1FA41710F0A41B639554
:100C70005A95A9F7AA3008F0A95FA05DAF93F39544
:100C8000611571058105910541F7ED3211F4EF937E
:100C9000F395F21718F43F93F395FBCF8F91B5DFDF
:100CA000FA95E1F70895E991F9918591803021F065
:100CB000853219F0AADFF9CF089520E0E894559124
:100CC0005532C1F3503311F4689455915A3348F4B6
:100CD000505390F3220F022E220F220F200D250FCA
:100CE000F4CF0EF4219589919991533619F3533726
:100CF00029F1533559F1BC0188279927E8945C36CE
:100D000021F48991999168945591543639F446EFBC
:100D10007EF077FF0DC08FEF9FEF0AC055374AE096
:100D200039F0583540E121F0523642E009F008959B
:100D3000FF93EF937DDFEF91FF91B7CFFF93EF9399
:100D4000FC0181918030B9F360DFFBCFFF93EF931B
:100D500068DFF1CFDF93CF93CDB7DEB72596A3DF62
:100D6000CF91DF910895811105C082E5611181E580
:100D70000C94ED0F813029F489EA6623C9F38AEADD
:100D8000F7CF089581E0089581E008950C94C4069A
:100D900008950C94C8061F93CF93DF9300D000D022
:100DA0000F92CDB7DEB749835A836B833091C3016D
:100DB00089819A8131111DC06623B9F02223A9F0DF
:100DC0000E941917182F682F89819A810E94C416D2
:100DD00069817A81812F0F900F900F900F900F9063
:100DE000DF91CF911F910C948D070E94F116182F5F
:100DF000EFCF0E94191769817A81EDCFFC01262F70
:100E0000408151816281738184810C94CB06CF93A0
:100E1000DF93EC0160E00E94FE06BE01DF91CF91FE
:100E20000C94C9060E946D18811102C00E940A1913
:100E30000C9476090C94790908950C941C0781E0B0
:100E400008950C941F07CF93C82F0E941D078C2F65
:100E5000CF910C94210708950E94A6120E942B079F
:100E60002FEF84E39CE0215080409040E1F700C0E8
:100E700000000C94331A0F931F93CF93DF93EC0170
:100E800061E00E94FE068C01BE010E94C606882316
:100E900011F1BE01C8010E94310C8823E1F0BE01AE
:100EA000C8010E94720C8823B1F0BE01C8010E94E3
:100EB000950D882381F08A81882341F101308CE5EA
:100EC000180779F00E3D8CE51807E9F001151C456F
:100ED000E9F40E942C0780E0DF91CF911F910F91E0
:100EE000089590911B02892F8E7F90FF81608093DF
:100EF0001B0280FF05C080ED90E00E941106EBCF41
:100F00008EEB90E0FACF0E940A19E5CFCE01DF9177
:100F1000CF911F910F910C94C206972F70E023E0A0
:100F2000929F600D711D1124FB0199E0899FE00DD6
:100F3000F11D1124EE0FFF1FE455FF4F8591949191
:100F40000895CF93DF930E948D070E949B08EC01C8
:100F5000811521E5920708F042C0811530E593071D
:100F600008F09DC0883E910530F5803E910508F05F
:100F700092C0883A910588F4853A910508F084C0BA
:100F80008130910509F487C0009709F484C0049763
:100F900008F081C0D0E0C0E07EC08F3B9105D0F763
:100FA000C85AD0E0CC0FDD1FCB5EDE4F0990D88150
:100FB000C02DD46470C08115904250F4C11581E0F9
:100FC000D80708F068C0C03FD10520F3D06563C0E2
:100FD000C11590E4D907F0F2DF70D06A5CC08115CA
:100FE00025E5920700F5811534E5930708F08BC0DD
:100FF000811543E5940708F073C0C11582E5D80751
:1010000008F469C0CE018370992721E030E002C066
:10101000220F331F8A95E2F7C695C69580E2C89FD6
:10102000E001112454C0C11599E5D907A8F4C115F0
:1010300028E5D20708F06CC0C11536E5D30708F0E3
:10104000A9CF8C2F0E943209C82FD0E0DC2FCC27EB
:10105000CC27DF71D0621FC0C1154AE5D40708F460
:101060005CC0CE0190568115904208F093CF8D2F31
:101070008F710E94320990E0982F882788279F71EE
:101080009C012C2BE901E6CFC55AD0E0CD5BDE4FA9
:10109000C881D0E0D064CE01DF91CF910895E4E023
:1010A00096958795EA95E1F783702C2F26952695DE
:1010B000237040E2249F90011124382B8C2F8370E1
:1010C000C1E0D0E002C0CC0FDD1F8A95E2F7C22B51
:1010D000D32BDC68E0CFDC2FCC27C16FD06ADBCF0D
:1010E0008370992721E030E002C0220F331F8A95D8
:1010F000E2F7C695C69590E2C99FE0011124C22B84
:10110000D32BDA68C8CFD82FCC27C46FD06AC3CF0F
:10111000DC2FCC27C06FD06ABECF8C2F8F700E947F
:10112000320934E0D695C7953A95E1F7CF709C2FF8
:10113000EC01D069B0CF82389105B1F1B0F48133C0
:10114000910509F475C048F48932910509F469C024
:101150008A32910509F473C008958533910509F425
:1011600059C08933910501F10895833E9105A9F194
:1011700038F4803E9105F9F0823E910549F10895D9
:10118000863E9105A9F1873E9105C9F1843E9105FE
:1011900019F52091480221FF1FC08091470284FD6C
:1011A00014C087EE90E00895209147022370A1F0CB
:1011B00080EE90E008952091470220FD47C03091D5
:1011C000480230FF09C024FF44C090E080E004C022
:1011D0002091470222FDF7CF08952091470222FD7A
:1011E0003BC03091480230FDE3CF24FFF5CFEDCF77
:1011F0002091470223FFF0CF24FDE7CFD2CF2091EB
:10120000470223FD2CC03091480231FFEECF84EE1F
:1012100090E008952091470225FFDECF89E290E01B
:1012200008952091470225FFD7CF85E390E00895E8
:101230002091470226FFD0CF8AE290E008952091C6
:10124000470226FFC9CF81E390E0089589E390E04B
:10125000089583EE90E0089582EE90E0089586EE82
:1012600090E008959091470292FF06C0282F2871C0
:101270002830F9F4877F846093FF06C0282F2871F7
:101280002831F1F4877E84612091480220FF06C056
:10129000382F38713830D9F4877F816021FF06C03C
:1012A000282F28712831D1F4877E816194FD877EB3
:1012B0000895282F24712430F9F68B7F8860DCCFC5
:1012C000282F2471243101F78B7E8861DDCF382FE0
:1012D0003171313019F78E7F8860E0CF282F21716E
:1012E000213121F78E7E8861E1CF08950C94750934
:1012F00008950C947809E82FF0E0E25CFD4F8081BE
:101300000895CF92DF92EF92FF920F931F93CF93A6
:10131000DF9380EF90E00E9411068EE3E82E82E0DA
:10132000F82ED0E0C0E09BEEC92E90E0D92E03EE5F
:1013300010E0DF93CF93DF92CF920E94AA0688EE4F
:1013400090E00E941106F70181917F010E945518DB
:101350001F928F931F930F930E94AA0681EE90E035
:101360000E94110621968DB79EB708960FB6F89485
:101370009EBF0FBE8DBFC330D105D9F6DF91CF918F
:101380001F910F91FF90EF90DF90CF90089580EA2A
:101390008A95F1F70895CF93DF93A9E4B1E04CE487
:1013A00051E0C1E0D0E08D91E82FE295EF70F0E0E0
:1013B00061A18F709E0101C0220F8A95EAF7922FDA
:1013C0009095962391A382A1822B82A34A175B0753
:1013D00051F7A6E4B1E049E451E0C1E0D0E08D91DD
:1013E000E82FE295EF70F0E061A18F709E0101C0DF
:1013F000220F8A95EAF7922F9095962391A382A1C6
:10140000822B82A34A175B0751F710923B0210927E
:101410003E0210923C0210923F0210923D02109246
:10142000400283E00E94980ADF91CF910C9412074A
:101430008F929F92AF92BF92CF92DF92EF92FF92E4
:101440000F931F93CF93DF9389E4A82E81E0B82EEA
:101450000BE312E0912CCC24C394D12CF5018191A3
:101460005F01C82FC295CF70D0E099A18F7076012F
:1014700001C0EE0C8A95EAF7892F8E2989A38AA1EB
:101480008E2C809488218AA30E94C709E6E4F1E0AB
:1014900050E040E020E03191A32FA295AF70B0E082
:1014A00090968C9190E03F7002C0959587953A9503
:1014B000E2F780FD39C08C2D042E01C0880F0A94FC
:1014C000EAF7282B4F5F5F4F4330510521F789A181
:1014D000882289A28AA1E82AEAA2F8018081281735
:1014E00029F1208381E0982A0F5F1F4FFCE4AF169B
:1014F000F1E0BF0609F0B2CF292D43E06EE372E0C0
:101500008BE392E00E94990A0E941A07892DDF91CD
:10151000CF911F910F91FF90EF90DF90CF90BF90F0
:10152000AF909F908F90089580E0CBCF80E0DBCF8D
:101530000895FF920F931F93CF93DF93F82E092FF7
:10154000162FD72FC42F222349F081E08093AE01BC
:101550000E94E8199093AD018093AC018091AE0197
:101560008823A1F08091AC019091AD010E94001AF6
:10157000069760F0EF2DF02FA12FBD2FCE0FDF2F9C
:10158000D11DEC17FD0741F41092AE01DF91CF9110
:101590001F910F91FF90089581918D93F2CF0C943C
:1015A000B306AF92BF92CF92DF92EF92FF920F936A
:1015B0001F93CF93DF93AEE5B1E02CE531E083EBF1
:1015C000A82E81E0B82E60E671E041E050E00D9178
:1015D000802F82958F7090E0FC01C1A10F707A017D
:1015E000002E01C0EE0C0A94EAF7FE2DF095CF23F1
:1015F000FC01C1A3C2A1CE29C2A3E90119919E0198
:10160000E12FE295EF70F0E0F1A01F706A01012E6A
:1016100001C0CC0C0A94EAF7EC2CE094EF20E1A294
:10162000F2A0FC28F2A2EC0188A190E002C09595FE
:1016300087950A95E2F78170E0A1F0E002C0F59588
:10164000E7951A95E2F790E0E0FD92E0892BF5012D
:1016500081935F016A177B0709F0B9CFDF91CF91C2
:101660001F910F91FF90EF90DF90CF90BF90AF90C0
:1016700008959F92AF92BF92CF92DF92EF92FF9226
:101680000F931F93CF93DF9303EB11E08EE5C82EEA
:1016900081E0D82E9CE5E92E91E0F92E21EBA22ED7
:1016A00021E0B22ECFEAD1E0912CD801EC91EE0FDF
:1016B000EE0FED938D01D6012D916D01A22FA29514
:1016C000AF70B0E090968C9190E02F7002C095952D
:1016D00087952A95E2F781709927D7014D917D0171
:1016E000A42FA295AF70B0E090962C9130E04F708F
:1016F00002C0359527954A95E2F7A9014170552713
:1017000020FF02C042E050E0842BE82BD801119763
:10171000EC93EF70F0E0E45BFE4F8081F501908187
:10172000890F808384303CF088818F5F888360E0FC
:10173000892D0E94CF0AD5018C918D3F3CF4888180
:101740008150888361E0892D0E94CF0AF501808154
:10175000837887FF03C081508C6F8F5FD5018D9395
:101760005D012196B1E09B120CC0DF91CF911F91DA
:101770000F91FF90EF90DF90CF90BF90AF909F9030
:1017800008959924939491CF0F931F93CF93DF9350
:10179000C62FD42F022FFC0182818823C9F06093C9
:1017A000B7010E94E8199093B6018093B50180E2D9
:1017B0008C0F883008F050C0C77081E001C0880FDE
:1017C000CA95EAF7DF91CF911F910F910C94001009
:1017D0001091B701161335C08091B5019091B601F3
:1017E0000E94001A883C910560F5C0E2CD0F1D17DC
:1017F000B9F080E2810F883040F4177081E001C0B9
:10180000880F1A95EAF70E940710C83048F481E063
:101810009D2F977001C0880F9A95EAF70E940010DB
:10182000802F0E94ED0FC830B8F4D77081E001C05E
:10183000880FDA95EAF7DF91CF911F910F910C9401
:10184000071080E28C0F883038F4C77081E001C047
:10185000880FCA95EAF7EFCFDF91CF911F910F91D3
:1018600008959C01CB01233F4CE5340731F190F4FE
:10187000283DFCE53F07E9F0293D4CE5340769F1D7
:10188000273D3C4579F426E241EE61EE0E94C40B0F
:1018900080E00895253FFCE53F07B9F090F0263F32
:1018A0003C45B9F0FC0182818823D1F01092B70148
:1018B000089527E245EE65EEE9CF26E241EE60EEBF
:1018C000E5CF27E245EE64EEE1CF26E241EE62EE9F
:1018D000DDCF27E245EE66EED9CF28E241E0EBCF3F
:1018E00081E00895CF93DF93EC01FB01828188238F
:1018F00009F419C1C230FCE5DF07C0F1C6319CE52F
:10190000D90730F09E012A5F3C452930310570F53A
:101910000E9480189093480280934702C031ECE502
:10192000DE0709F4CFC008F05BC0C8308CE5D807EB
:1019300009F4B6C088F5C430ECE5DE0709F4A8C0A8
:10194000C0F4C2308CE5D80709F49CC080914702EE
:101950008260C330DC4509F498C0809147029091C1
:1019600048020E948E180E94A61280E0DF91CF915B
:101970000895809147028061C630ECE5DE0709F4E6
:1019800084C0809147028860C730DC4508F47DC080
:1019900080914702806279C0CC308CE5D80709F489
:1019A00089C070F4809147028C60CA30ECE5DE0794
:1019B00009F46BC008F478C0809147028E7F65C03F
:1019C000CE308CE5D80709F479C0809147028B7F2F
:1019D000CF30DC4508F459C0809147028F7E55C056
:1019E000CB3FECE5DE0709F457C030F5C3318CE599
:1019F000D80709F46FC078F4C131ECE5DE0709F4CB
:101A000065C0C231DC4509F0A8CF0E94A6128091C2
:101A100047028F773AC0C5318CE5D80709F462C018
:101A200008F476C0809148028160CA3FDC4509F025
:101A300094CF8093480291CFCF3FFCE5DF0709F4B4
:101A40004DC088F4809148028D7FCD3F9CE5D90739
:101A500081F3809148028E7FCE3FDC4550F3809128
:101A600048028360E6CFC130FDE5DF0709F459C0C5
:101A700008F444C080E0C230DD4509F06ECF0E941A
:101A80000C196BCF8091470281608093470265CF2C
:101A9000809147028460F9CF809148028260C9CF6B
:101AA000809147028064F1CF0E94A6128091470284
:101AB0008068EBCF809147028D7FE7CF809147020E
:101AC000877FE3CF809147028F7DDFCF80914702F0
:101AD0008F7BDBCF80914702837FD7CF80914802F5
:101AE0008C7FA7CF8091470282FB992790F921E054
:101AF000922790FB82F990FB83F9C7CF809148022F
:101B0000982F909591708E7F892B90FB81F991CFC2
:101B10000E94A61290914702892F97FB87F980585F
:101B2000B4CF81E0ACCF81E021CFCF93DF93EB0145
:101B300086319C4511F50E94AE179A81992399F040
:101B40008A7A91E009F490E09093B801811109C07C
:101B500089E20E9489170E94ED1780E0DF91CF9102
:101B6000089585E3F6CF8091B801811104C089E220
:101B70000E949017F0CF85E3FBCF81E0EFCF9093E9
:101B8000BE018093BD010895E091BD01F091BE01B9
:101B9000309721F00190F081E02D099480E00895C4
:101BA000EF92FF920F931F93CF93DF938C01E091FD
:101BB000BD01F091BE013097C1F10280F381E02DAB
:101BC000099580911B0282FF30C080FF04C087E02E
:101BD00091E00E941106D0E0C0E081E0E82E81E0B3
:101BE000F82E80911B0280FF0EC0F801EC0FFD1F44
:101BF00080811F928F93FF92EF920E94AA060F900E
:101C00000F900F900F902196C830D10551F7809119
:101C10001B0280FF0AC08FEF90E0DF91CF911F91F0
:101C20000F91FF90EF900C941106DF91CF911F91CF
:101C30000F91FF90EF900895E091BD01F091BE01EA
:101C4000309739F022E0DC012C930480F581E02DFF
:101C5000099408952091BB013091BC0128173907E0
:101C600071F09093BC018093BB01E091BD01F091B4
:101C7000BE01309721F00680F781E02D0994089588
:101C80002091B9013091BA012817390771F090936A
:101C9000BA018093B901E091BD01F091BE01309786
:101CA00021F00084F185E02D0994089585B78068BE
:101CB00085BF85B7806885BF0895089508950C9401
:101CC0005D0E08950C94610E0E94560E0E945E0EE9
:101CD0000C945F0E81E008950C946A0E0E94DF1947
:101CE0000E94CB090E94441A0E94D10A0C94620EF1
:101CF000CF93C82F80911B0282FF1EC080FF1CC0A3
:101D000080E291E00E94110680911B0280FF14C0C6
:101D10001F92CF938BE191E09F938F930E94AA062D
:101D200080911B020F900F900F900F9080FF04C0C6
:101D300089E191E00E9411068C2FCF910C9423072A
:101D4000AF92BF92CF92DF92EF92FF920F931F93C9
:101D5000CF93DF93CDB7DEB72A970FB6F894DEBFE7
:101D60000FBECDBF0E94180A0E946C0E882309F492
:101D700061C080ECA82E81E0B82E10E000E0C02EFB
:101D8000802F0E947B09E82EF501D1905F01D816C3
:101D900009F44AC080911B0281FD0E94810980E004
:101DA000FF24F394DE249D2D9F21C9F18E83CF82E1
:101DB000EF2081E009F480E088870E94E8198160C3
:101DC000782F9A8789874E815F8168858A850E94EE
:101DD0003C0FF801E054FE4F8081F826F0820E940B
:101DE000390B0E94531C0E94C40D9091BF018917AA
:101DF00091F10E94C40D8093BF012A960FB6F8940A
:101E0000DEBF0FBECDBFDF91CF911F910F91FF902D
:101E1000EF90DF90CF90BF90AF900C94780E8F5FD3
:101E2000FF0C833009F0BFCF0F5F1F4F0330110548
:101E300009F0A5CF8FEF89838A831B820E94E8195E
:101E40008160782F9D838C8349815A816B818D813C
:101E50000E943C0FC4CF2A960FB6F894DEBF0FBE87
:101E6000CDBFDF91CF911F910F91FF90EF90DF9049
:101E7000CF90BF90AF900895CF93DF93CDB7DEB7EB
:101E80002B970FB6F894DEBF0FBECDBF4F83588798
:101E900069877A878B871E821D8285E0FE013796CF
:101EA000DE01119601900D928A95E1F749815A81E0
:101EB0006B817C818D819E812B960FB6F894DEBF5D
:101EC0000FBECDBFDF91CF910C941C15FC0180811A
:101ED00091810C945B17CF93C82F882309F44CC0D1
:101EE0008CEF8C0F813AC8F48C2F0E944421811111
:101EF00043C06C2F80910001909101010E94231931
:101F0000882329F08C2F0E9490170E94ED178C2FA8
:101F10000E948917CF910C94ED1780E28C0F8830C6
:101F200048F4C77081E001C0880FCA95EAF70E94A3
:101F3000B117F0CFEBE5EC0FE33040F4F0E0E257FF
:101F4000FE4F808190E0CF910C942A0EE8E5EC0FD3
:101F5000E73150F4F0E0EE0FFF1FE05AFE4F8081B2
:101F60009181CF910C94400EC03F30F08C2F0E9495
:101F7000DF1ACF910C94C61BCF910895882361F18D
:101F80009CEF980F913A20F40E9490170C94ED1753
:101F900090E2980F983050F4877091E001C0990F4B
:101FA0008A95EAF7892F0E94B717F0CF9BE5980F23
:101FB000933020F490E080E00C942A0E98E5980F7E
:101FC000973120F490E080E00C94400E803F20F0A8
:101FD0000E94471B0C94C61B0895CF93C82F0E94E4
:101FE0006B0FC93349F42FEF87EE93E02150804007
:101FF0009040E1F700C000008C2FCF910C94BE0FF1
:10200000882321F00E94B1170C94ED1708958823BE
:1020100021F00E94B7170C94ED170895BF92CF924C
:10202000DF92EF92FF920F931F93CF93DF936C0198
:10203000D62FC72FFC01058102950F701281111157
:102040000E94CE170E94A717E82E882391F0112333
:10205000E9F08C2F807F803421F080E28D0F883072
:10206000A8F082E00E9438180E94A71791E0E82E9D
:10207000E926BC2EB2949FE0B922FBE0FB15A8F143
:10208000EB2DF0E0E256F54D0C94402AE12CF1CF17
:102090000C2F0F70C07F11F00295007F1123A9F063
:1020A000002359F080E28D0F883010F0D11109C063
:1020B000802F0E94B1170E94ED178D2F0E946B0F89
:1020C00014C0802F0E94C117F6CF8D2F0E94BE0F23
:1020D000002359F080E28D0F883010F0D1112CC010
:1020E000802F0E94B7170E94ED172B2D2850330B1D
:1020F0002430310520F40E94C40D0E942307EE20F5
:1021000009F4C5C10E94A31780FDC1C1F601128266
:102110000E949D170E942816C6010E9468120E9404
:102120009D17DF91CF911F910F91FF90EF90DF905E
:10213000CF90BF900C944916802F0E94C717D3CF21
:102140002C2F2F70F22EC07FC03219F0F29480EF46
:10215000F822DD2369F0D13049F1112391F10023F8
:1021600051F1F601858180FFA8CF8F70858323C050
:10217000112381F0011106C00E94D4178F290E94FB
:102180000010B3CF0130C1F70E94D4178F290E94ED
:10219000DA17ABCF011106C00E94E3178F2D0E9402
:1021A0000710A3CF013009F4A0CFF6CF112329F0F7
:1021B000063008F09ACF8F2DE2CF053008F095CF8A
:1021C000EDCF002359F3D93349F4FFEF27EE33E085
:1021D000F15020403040E1F700C000008D2F0E94F8
:1021E000BE0F83CF8C2F86958695837069F08130E2
:1021F00009F07BCF8D2F9C2F9370111102C090E0BE
:1022000080E00E94400E71CF8D2F9C2F9370111192
:1022100002C090E080E00E942A0E67CF112309F1EE
:10222000D53F99F0D63FB9F0D43F49F480914102AF
:1022300090914202816090934202809341028D2FDF
:102240000E94DF1A0E94C61B50CF809141029091DC
:1022500042028260F0CF80914102909142028460FC
:10226000EACFD53F89F0D63FA9F0D43F49F4809119
:102270004102909142028E7F9093420280934102EC
:102280008D2F0E94471BDECF809141029091420228
:102290008D7FF2CF80914102909142028B7FECCFF3
:1022A0008C2F837009F041C011111FCF4D2F429523
:1022B00046954770440F440F0D2F0F7010E030E02B
:1022C00020E0042E04C0000F111F221F331F0A94A8
:1022D000D2F760E070E0CB01D4FF0FC06FE070E098
:1022E00080E090E004C0660F771F881F991F4A9511
:1022F000D2F76095709580959095C695C695C370F8
:10230000602B712B822B932BC23049F058F4C130D3
:1023100019F00E94DA15E9CE0E94C815E6CE0E9497
:10232000EC15E3CE0E94C615E0CE8695112311F080
:102330008C2F8170882309F4D8CE4D2F4295469575
:102340004770440F440F0D2F0F7010E030E020E075
:10235000042E04C0000F111F221F331F0A94D2F74E
:1023600060E070E0CB01D4FF0FC06FE070E080E070
:1023700090E004C0660F771F881F991F4A95D2F717
:102380006095709580959095C695C695C370602BA5
:10239000712B822B932BC23049F058F4C13019F0C5
:1023A0000E949F16A2CE0E948D169FCE0E94B1164B
:1023B0009CCE0E94021699CECF70112329F08C2F4B
:1023C0000E9428168D2FDBCE8D2F0E9407108C2F98
:1023D0000E9449168ACED23F89F160F4D03FC9F0FD
:1023E000D13F29F1112309F442C0011166CE8C2F8F
:1023F0008F7121C0D33F39F1D43FA1F7112369F187
:10240000CF718C2F0E94281663E08C2F0E94231816
:102410006CCE112341F0053008F067CE8C2F8F7100
:102420000E946C1662CE063008F05FCEF7CF8C2F7C
:102430008F71112369F20E94281657CE8C2F8F714D
:102440001123C9F3C5CF112329F08C2F8F710E945E
:1024500013164BCE0E940E1648CE81E00E9438180B
:10246000023008F442CE82E00E9438183ECE0023AB
:1024700059F0D93309F0B2CE8FEF97EEE3E08150F7
:102480009040E040E1F7A8CE8C2F8F71A1CFDF9173
:10249000CF911F910F91FF90EF90DF90CF90BF9061
:1024A00008950F931F93CF93DF93EC016881798197
:1024B0008A810E9465178C010E94C3160E94C5156F
:1024C000B801CE01DF91CF911F910F910C940E10A6
:1024D000CF93DF93EC018B819C81892B29F088813C
:1024E000998189238F3F59F4DF91CF910895CE01CF
:1024F0000E945112CE01DF91CF910C940707CE01BB
:102500000E943B078111F3CF0E94A717882361F334
:102510008A81882349F382E0DF91CF910C943818A7
:102520000E94CE170E94D1170E94ED170E946D1DC8
:102530000E94C61B90E080E00E942A0E90E080E09E
:102540000C94400E0E9497170C9490120E94BE1794
:102550000C94A212E92FE295EF70E250EE3070F485
:10256000F0E0E655F54D0C94402A803F19F020F438
:10257000883E20F481E00895843FE1F380E00895EF
:10258000883EC0F3813FD1F7F5CF93FB882780F9D0
:1025900008950E945B170C94AA12CF93DF9300D08A
:1025A00000D00F92CDB7DEB70F900F900F900F9025
:1025B0000F90DF91CF910895CF93DF9300D000D09B
:1025C00000D0CDB7DEB726960FB6F894DEBF0FBEAB
:1025D000CDBFDF91CF9108951F93CF93DF93C0912B
:1025E000C40116E08091C5018C1304C0DF91CF9126
:1025F0001F910895D0E01C9FF0011D9FF00D112444
:10260000EA53FE4F408151816281738184819581BB
:102610000E94DC122196C770E5CF4091F6015091DF
:10262000F7016091F8017091F9018091FA019091A0
:10263000FB010C94DC121F93CF93DF938091FB017D
:10264000807FA9F48091F801882389F08091C401EA
:10265000C091C5016091F6017091F701A091F90157
:10266000B091FA01D62FD72316E0C81304C0DF912A
:10267000CF911F91089590E0109711F0DF3F19F46A
:1026800001968770F2CF189F9001199F300D112489
:10269000F901EA53FE4F41814713F2CF40814613BF
:1026A000EFCF42814111ECCF438154814A1B5B0B38
:1026B000483C510528F78091FB018F708061809321
:1026C000FB01F901E553FE4F80818F7080618083AB
:1026D00086EF91E00E946812DF91CF911F910C94D8
:1026E000EC12AF92BF92CF92DF92EF92FF920F93D4
:1026F0001F93CF93DF93CDB7DEB761970FB6F894F2
:10270000DEBF0FBECDBF8C0185E0F801DE011D9656
:1027100001900D928A95E1F7F80140815181E280A4
:1027200086EFC82E81E0D82E6091F9017091FA01F0
:102730006115710509F461C19091F6012091F701CD
:10274000892F82238F3F09F458C1A380B480F09071
:10275000F801F501E61BF70BFF2009F4FCC080919E
:10276000FB01382F307FE83CF10508F0B2C0311191
:1027700079C0FE2C251323C0941321C0E1101FC083
:102780008F7080618093FB010E940D13C6010E942F
:1027900068128091FB01F80185838F2D61960FB639
:1027A000F894DEBF0FBECDBFDF91CF911F910F9187
:1027B000FF90EF90DF90CF90BF90AF900895AB283F
:1027C00029F0842F85238F3F09F033C180E0F82F53
:1027D000F170DF2E80FF3CC08091C4012091C501C3
:1027E00036E0821315C04D875E878D859E850E94D9
:1027F0005B17292F22952F702230F0F0243018F526
:102800009F70F1F0F8019581907FD1F4D12C1EC01A
:1028100090E0389FF001399FF00D1124EA53FE4FEC
:102820006181651306C06081641303C062816E110B
:102830000FC001968770D5CF9F7011F0882331F3B8
:10284000805E883018F3C8010E946812FD2CA5CF65
:10285000EE2009F4A2CF8091FB0181608093FB01FF
:10286000F12C9BCF251306C0941304C0F801EE2071
:1028700009F48DC04D875E878D859E850E94C912A3
:10288000882319F1EE2009F18091FB01803270F06C
:102890002091F6013091F70138872F831986BB8686
:1028A000AA868C87CE0107960E94681286E0F801FE
:1028B000A6EFB1E001900D928A95E1F70E941B13FB
:1028C0000E940D13FF24F39468CFC8010E94681280
:1028D000F9CF311113C07A2DB98AA88A6E2D898952
:1028E0000E94CD1286EF91E00E94681286E0F60108
:1028F00011928A95E9F70E940D13B2CF25130FC0EC
:1029000094130DC0E1100BC0F8018583C8010E942B
:10291000681286E0F60111928A95E9F73ECF4D875D
:102920005E878D859E850E94C912882371F2EE20F4
:1029300061F28091FB01803208F4B8CF2091F6015A
:102940003091F7013A8329831B82BD82AC828E834A
:10295000CE010196A9CFE83CF10508F041C0FE2C5C
:10296000EE2009F4B2CF25132AC0941328C0809119
:10297000FB0180FD1BC0982F907FC1F0F80185837B
:10298000903F31F0982F907F905F8F70892B8583D7
:10299000C8010E94681286E0F801A6EFB1E001903C
:1029A0000D928A95E1F70E940D13F7CE86E0F801AB
:1029B000A6EFB1E001900D928A95E1F7EECE4D873A
:1029C0005E878D859E850E94C91281116FCF80918F
:1029D000FB0181608093FB01C8010E946812DDCE7B
:1029E0007A2DB98AA88A6E2D89890E94CD1286E037
:1029F000F60111928A95E9F7D6CFEE2009F465CF5A
:102A00004D875E878D859E850E94C912F82E88238A
:102A100009F45BCF86E0F801A6EFB1E001900D92DA
:102A20008A95E1F786EF91E00E94660F0E941B13E2
:102A3000BACF81E08E25CBCE1F93CF93DF93CDB756
:102A4000DEB72C970FB6F894DEBF0FBECDBF4F8315
:102A5000588769877A878B879C87CE0107960E9463
:102A60007113882369F08A859B85892B39F04F8102
:102A70005885842F85238F3F09F071C016E05FC011
:102A800086E0FE013796DE01119601900D928A953F
:102A9000E1F78A859B85892B89F388859F81892326
:102AA0008F3F61F32091C50130E0C9010196877025
:102AB00099274091C4014817190671F40E94A61283
:102AC0001092C5011092C40186E0E6EFF1E0DF014B
:102AD0001D928A95E9F7D2CF96E0929FD001939FFD
:102AE000B00D1124AA53BE4FFE01319601900D92F4
:102AF0009A95E1F78093C5010E94EC12BFCF819FA8
:102B0000C00111248A539E4F0E9471138823E9F05B
:102B1000E091C4011E9FF0011124EA53FE4F408151
:102B2000518162817381848195810E94DC12809140
:102B3000C40190E00196877099278093C401809129
:102B4000C4019091C5018913DACF2C960FB6F89481
:102B5000DEBF0FBECDBFDF91CF911F910895698574
:102B60007A858B859C850E94DC1288CF08950C9411
:102B7000B6150E94B71560930A0270930B028093FA
:102B80000C0290930D020C94901208950C94B915B8
:102B90000F931F9300910A0210910B0220910C02D7
:102BA00030910D02602B712B822B932B1F910F9173
:102BB0000C94B9150F931F9300910A0210910B0208
:102BC00020910C0230910D02602371238223932304
:102BD0001F910F910C94B9150F931F9300910A0246
:102BE00010910B0220910C0230910D026027712789
:102BF000822793271F910F910C94B9150C94B61549
:102C00000C94FE150E940016609306027093070252
:102C100080930802909309020C94901260E070E097
:102C2000CB010C9402160F931F9341E050E060E03B
:102C300070E08A019B0104C0000F111F221F331F87
:102C40008A95D2F7C901B8011F910F910C94021611
:102C50000F931F9341E050E060E070E004C0440F28
:102C6000551F661F771F8A95D2F7809106029091B3
:102C70000702A0910802B09109028A019B01082B6A
:102C8000192B2A2B3B2BC901B8011F910F910C94D2
:102C900002160F931F9341E050E060E070E004C023
:102CA000440F551F661F771F8A95D2F7CB01BA01D3
:102CB000609570958095909500910602109107029D
:102CC000209108023091090260237123822393230B
:102CD0001F910F910C9402160F931F9341E050E047
:102CE00060E070E004C0440F551F661F771F8A958F
:102CF000D2F78091060290910702A0910802B0914C
:102D000009028A019B01082719272A273B27C901A5
:102D1000B8011F910F910C9402160F931F9300910D
:102D20000602109107022091080230910902602BDF
:102D3000712B822B932B1F910F910C9402160F93E2
:102D40001F93009106021091070220910802309112
:102D5000090260237123822393231F910F910C9406
:102D600002160F931F930091060210910702209103
:102D700008023091090260277127822793271F914B
:102D80000F910C9402160895E92FEE0F9E0F890FF4
:102D9000982F977041E001C0440F9A95EAF7869505
:102DA0008695869595E0899FF0011124E450FE4FA9
:102DB00030E020E070E05191DF011197CB01022E4D
:102DC00002C0969587950A94E2F7817081958527D0
:102DD000842385278C932F5F3F4F2530310559F78A
:102DE0000895E92FEE0F9E0F890F982F9770869503
:102DF0008695869525E0829FF0011124E450FE4FD0
:102E000050E040E080E0219130E0092E02C036958C
:102E100027950A94E2F721703327042E01C0220F70
:102E20000A94EAF7822B4F5F5F4F4530510559F7FF
:102E30000895BF92CF92DF92EF92FF920F931F936C
:102E4000CF93DF938C01C0900602D0900702E090F0
:102E50000802F090090280910A0290910B02A09161
:102E60000C02B0910D02C82AD92AEA2AFB2ACFE126
:102E7000D0E0BC2ED701C6010C2E04C0B695A79594
:102E8000979587950A94D2F780FD0EC0219788F711
:102E9000B12C8B2DDF91CF911F910F91FF90EF906F
:102EA000DF90CF90BF900895B8018C2F0E94A107AA
:102EB000019761F3EECFCF93DF93EC010E941917D6
:102EC000BE01DF91CF910C94A1071F93CF93DF93A5
:102ED000EB019091C301992331F0CB01DF91CF91A8
:102EE0001F910C945B17882379F0CB010E9419176E
:102EF000182F682FCE010E94C416BE01812FDF91CA
:102F0000CF911F910C94A107CB010E94F116182FAD
:102F1000F4CF682F80910001909101010C94591910
:102F2000682F80910001909101010C945B198091B0
:102F30000001909101010C945D1980910E0285951C
:102F400085958595089580910E02877008959091DA
:102F50000E02977081E009F480E0089580911A02D2
:102F6000089590911A02892B80931A0208958095F2
:102F700090911A02982390931A02089510921A02BF
:102F8000089590911902892B8093190208958095D4
:102F900090911902982390931902089510921902A2
:102FA000089510921802089580910F0208950895CF
:102FB0000C94D71790910F02981721F080930F026D
:102FC0000C94D817089580910F02882329F010924D
:102FD0000F0280E00C94D8170895E0910001F09161
:102FE000010180911A028083E0910001F0910101BA
:102FF000808190911902892B8083E0910001F091EA
:103000000101808190911802892B808390910F0299
:10301000992381F0E0910001F09101018081892BD9
:10302000808380910001909101010E94111981110A
:103030000E94E31780910001909101010C94D00D42
:1030400008950C94201898E0899F90011124622B18
:1030500060930E020E94281680910E028595859538
:1030600085950C94211810920E0280E00C94211882
:1030700090910E028095892380930E02282F27704D
:1030800071F4282F082E000C330B9217130639F019
:103090008595859585950E9449160C943318089559
:1030A0009093AB018093AA010895829590E09C01D2
:1030B000220F331F220F331F2C7C959587959595F2
:1030C00087958373282B30E0C901880F991F8A7A6E
:1030D000359527952575822B089590E080E00E9414
:1030E000622A21E08C3E9E4F09F020E0822F089555
:1030F00082E090E00C945A2A83E090E00C945A2AE3
:10310000CF9384E090E00E945A2AC82F81E290E099
:103110000E945A2A982F8C2FCF910895CF93C92FB0
:10312000682F84E090E00E94682A6C2F81E290E092
:10313000CF910C94682AAB01BC018FE090E00C9415
:103140007A2AAB01BC0183E190E00C947A2A60E01A
:1031500070E0CB010C94A11860E070E0CB010E94FC
:103160009B180C94A7186CEE7EEF90E080E00E9414
:10317000862A60E082E090E00E94682A60E083E0B6
:1031800090E00E94682A10920A0210920B0210929C
:103190000C0210920D0260E084E090E00E94682A28
:1031A00060E081E290E00E94682A60E085E090E0C3
:1031B0000E94682A60E086E090E00E94682A6FEF33
:1031C00087E090E00E94682A40E050E0BA0188E081
:1031D00090E00E947A2A60E08DE090E00E94682AE8
:1031E00040E050E0BA0188E190E00E947A2A60E075
:1031F00087E190E00E94682A40E050E0BA018CE14B
:1032000090E00E947A2A60E080E290E00E94682AC2
:103210000C94AC180C94B318682F8EE090E00C94CA
:10322000682A9C012E5F3F4FAC01485F5F4F80E0F2
:103230002417350709F40895F90191919F01992305
:10324000B9F38F5FF5CF662349F0FC0132960896FB
:103250002191261729F0E817F907D1F780E00895A2
:1032600081E008959C01FC0132969FEF80E041913E
:10327000461751F09F3F19F4411101C0982F8F5FFD
:103280008630A9F79F3F09F40895290F311D97FD56
:103290003A95F90162830895FC01329608962191CE
:1032A000261303C0DF0111971C92E817F907B9F73D
:1032B00008950C9432190C944C19029626E0FC01E6
:1032C00011922A95E9F70895089508950C946519C7
:1032D0000E94661980914D02843049F110921C02BF
:1032E00088E190E020E40FB6F894A8958093600000
:1032F0000FBE2093600080E00E9423070E946619A1
:1033000083B7817F846083BF83B7816083BF7894F4
:10331000889583B78E7F83BF0FB6F894A895809168
:103320006000886180936000109260000FBE089575
:103330000895CF930E9464190E94180A0E94981958
:10334000C0E08C2F0E947B09811105C0CF5FC33084
:10335000C1F7CF91089581E0FCCF08950C94AD1989
:103360000E94A6120E94C40D0E9423070C94AE195D
:103370001F921FB61F9211248F939F93AF93BF93F9
:1033800080911C02811113C08091430290914402EC
:10339000A0914502B09146024196A11DB11D8093B6
:1033A000430290934402A0934502B0934602BF911A
:1033B000AF919F918F911F901FBE1F90189582E033
:1033C00084BD93E095BD9AEF97BD80936E000895FC
:1033D0002FB7F8948091430290914402A091450246
:1033E000B09146022FBF08952FB7F8946091430221
:1033F0007091440280914502909146022FBF08953A
:103400009C014FB7F8948091430290914402A0919F
:103410004502B09146024FBF821B930B08957894EA
:103420001F921FB61F9211248F939F93AF93BF9348
:103430008091430290914402A0914502B0914602CE
:103440000196A11DB11D8093430290934402A09365
:103450004502B0934602BF91AF919F918F911F900B
:103460001FBE1F90189587E797E7909301088093F8
:10347000000888E19AE00FB6F894A8958093600060
:103480000FBE90936000FFCF0E946D18811102C0A3
:103490000E940A190E94781880931B020E948018CB
:1034A00090934802809347020E947C18682F70E036
:1034B00090E080E00C94C6158091240280FF12C039
:1034C0006091070185E0689FB001112475956795AB
:1034D0007595679560387105A8F561157105A1F1BD
:1034E000862F089581FF09C06091070185E0689FDC
:1034F000B001112475956795EDCF6091070182FDAC
:103500000AC0809123028823D1F090910601609136
:103510000701891728F085E0689FB0011124DACFF0
:10352000869FB001112485E0869F9001879F300D12
:103530001124692F70E0C9010E942C2ACBCF65E0CD
:1035400070E0CECF8FE7089581E008958091240246
:1035500080FF0CC06091030170E0759567957595CB
:1035600067956115710549F1862F089581FF06C0A1
:103570006091030170E075956795F3CF6091030149
:1035800082FD0BC0909123029923A1F0609102016A
:1035900080910301961738F0682F70E0603871054C
:1035A00000F38FE70895899FC001112470E00E9405
:1035B0002C2AF4CF61E070E0D7CF81E00895803FFE
:1035C00031F40E945C1A8195809328020895813F0E
:1035D00019F40E945C1AF8CF823F31F40E945C1A01
:1035E0008195809327020895833F19F40E945C1A05
:1035F000F8CF893F29F40E94A61A809329020895E2
:103600008A3F21F40E94A61A8195F7CF8B3F31F4AF
:103610000E94A61A819580932A0208958C3F19F47E
:103620000E94A61AF8CF843F31F48091260281606F
:10363000809326020895853F21F4809126028260BE
:10364000F7CF863F21F4809126028460F1CF873F37
:1036500021F4809126028860EBCF883F21F480918D
:1036600026028061E5CF8D3F31F480912402816094
:103670008093240208958E3F21F480912402826079
:10368000F7CF8F3FB9F7809124028460F1CF9091FA
:103690002702803F41F48091280287FD1092280282
:1036A000992371F00895813F29F48091280218161A
:1036B000ACF3F6CF823F81F497FFF2CF109227024E
:1036C0008091280290912902892B90912A02892BBE
:1036D00049F7109223020895833F19F4191674F3E1
:1036E000DFCF893F39F4809129021816CCF6109269
:1036F0002902D6CF8A3F29F48091290287FFD0CFB3
:10370000F6CF8B3F39F480912A0287FFC9CF109200
:103710002A02C6CF8C3F29F480912A021816BCF3E6
:10372000BFCF843F31F4809126028E7F80932602A2
:10373000B7CF853F21F4809126028D7FF7CF863F5A
:1037400021F4809126028B7FF1CF873F21F4809175
:103750002602877FEBCF883F21F4809126028F7E5F
:10376000E5CF8D3F31F4809124028E7F8093240237
:1037700097CF8E3F21F4809124028D7FF7CF8F3F2A
:1037800009F08ECF809124028B7FF0CF80911B02B5
:1037900083FF7EC08AE591E00E9411068091260297
:1037A0001F928F9385E591E09F938F930E94AA06C5
:1037B00083E591E00E94110680912702282F082EB0
:1037C000000C330B3F938F9380E591E09F938F9391
:1037D0000E94AA068EE491E00E94110680912802C0
:1037E000282F082E000C330B3F938F938BE491E02E
:1037F0009F938F930E94AA0689E491E00E9411068C
:1038000080912902282F082E000C330B3F938F93B1
:1038100086E491E09F938F930E94AA0684E491E04E
:103820000E94110680912A02282F082E000C330BCB
:103830003F938F9381E491E09F938F930E94AA0618
:103840008EE391E00E941106809123021F928F93D4
:103850008BE391E09F938F930E94AA0689E391E006
:103860000E941106809124021F928F9386E391E0BB
:103870009F938F930E94AA0683E391E00E94110612
:103880008DB79EB74C960FB6F8949EBF0FBE8DBFF6
:1038900085E292E00E941C0E0E94E8199093220299
:1038A000809321020895CF93DF9300D000D000D001
:1038B000CDB7DEB786E0E5E2F2E0DE0111960190D9
:1038C0000D928A95E1F78091270290912802892B29
:1038D00081F080911F02909120020E94001AAC0199
:1038E00090912302992331F18091080184171506E4
:1038F00070F18091290290912A02892B91F0809198
:103900001D0290911E020E94001AAC0190912302A8
:10391000992309F478C0809104018417150608F4EE
:1039200080C026960FB6F894DEBF0FBECDBFDF91E4
:10393000CF910895209109018AE0289F90011124D8
:1039400024173507B0F69F5F9093230202C09F3F74
:10395000D1F71092290210922A028091270218169C
:1039600024F40E945C1A809327028091270287FF2B
:1039700005C00E945C1A81958093270280912802DD
:10398000181624F40E945C1A809328028091280261
:1039900087FF05C00E945C1A8195809328023091B0
:1039A00027023323A1F020912802222381F045EB46
:1039B0003403C00111249923F1F09093270245EBC1
:1039C0002403900111243323D1F0309328020E9464
:1039D000C61B809121029091220290932002809335
:1039E0001F0286E0FE013196A5E2B2E001900D9241
:1039F0008A95E1F77ECF81E080932702E0CF81E0D6
:103A000080932802E4CF209105018AE0289F90014D
:103A100011242417350708F084CF9F5F9093230269
:103A200002C09F3FD1F71092270210922802809186
:103A30002902181624F40E94A61A80932902809164
:103A4000290287FF05C00E94A61A8195809329024A
:103A500080912A02181624F40E94A61A80932A0242
:103A600080912A0287FF05C00E94A61A8195809343
:103A70002A02309129023323A1F020912A02222325
:103A800081F045EB3403C00111249923F1F09093A8
:103A9000290245EB2403900111243323D1F0309304
:103AA0002A020E94C61B80912102909122029093CB
:103AB0001E0280931D0286E0FE013196A5E2B2E06F
:103AC00001900D928A95E1F72CCF81E08093290235
:103AD000E0CF81E080932A02E4CF86E0E5E2F2E0E5
:103AE000DF011D928A95E9F71092230210922402B9
:103AF00008958DE793E00E9411061F9281E08F9355
:103B00001F9285E08F938FE293E09F938F930E94A3
:103B1000AA060F900F900F900F900F900F9008959E
:103B2000833009F445C028F4813061F0823049F1D6
:103B30000895853009F46AC008F451C0863009F44C
:103B40007CC0089580910901482F460F5527551FC5
:103B50004F3F510594F4680F60930901809109016A
:103B60001F928F9388E692E09F938F930E94AA06FC
:103B70000F900F900F900F9008958FEF8093090191
:103B8000EDCF80910801482F460F5527551F4F3F15
:103B9000510554F4680F60930801809108011F9249
:103BA0008F9386E592E0E0CF8FEF80930801F5CF09
:103BB00080910701482F460F5527551F4F3F51054C
:103BC00054F4680F60930701809107011F928F934F
:103BD00083E492E0C9CF8FEF80930701F5CF809106
:103BE0000601482F460F5527551F4F3F510554F4E6
:103BF000680F60930601809106011F928F938EE2F9
:103C000092E0B2CF8FEF80930601F5CF8091030150
:103C1000482F460F5527551F4F3F510554F4680F45
:103C200060930301809103011F928F9385E192E0DD
:103C30009BCF8FEF80930301F5CF80910201482F36
:103C4000460F5527551F4F3F510554F4680F609399
:103C50000201809102011F928F938AEF91E084CF3D
:103C60008FEF80930201F5CF8330C9F128F48130C2
:103C700061F0823019F10895853009F452C008F4DA
:103C80003FC0863009F45EC008958091090168172D
:103C900090F4861B80930901809109011F928F93F4
:103CA0008BEE91E09F938F930E94AA060F900F9046
:103CB0000F900F90089510920901EECF80910801A6
:103CC000681750F4861B80930801809108011F92A9
:103CD0008F9389ED91E0E6CF10920801F6CF8091A5
:103CE0000701681750F4861B809307018091070134
:103CF0001F928F9386EC91E0D5CF10920701F6CFFB
:103D000080910601681750F4861B8093060180910C
:103D100006011F928F9381EB91E0C4CF10920601B0
:103D2000F6CF80910301681750F4861B809303013E
:103D3000809103011F928F9388E991E0B3CF109295
:103D40000301F6CF80910201681750F4861B80931F
:103D50000201809102011F928F938DE791E0A2CF23
:103D600010920201F6CFCF93C82F1F928F9382E853
:103D700094E09F938F930E94AA0661E070E080E038
:103D800090E004C0660F771F881F991FCA95D2F76D
:103D90000E94C6150F900F900F900F90CF910C942A
:103DA000A612CF93DF938B3109F4FEC108F0A0C1B6
:103DB0008B3009F4BCC108F06AC1863009F4CAC16D
:103DC00048F4853009F4A2C181E299E00E9411060D
:103DD00080E0D0C1873009F4D0C18830A9F780ECE9
:103DE00099E00E94110681E199E00E9411060E946B
:103DF0007C181F928F938EE099E09F938F930E947F
:103E0000AA068CE099E00E9411060E947818C82F3B
:103E100089EF98E00E9411061F92CF9384EF98E0FB
:103E20009F938F930E94AA0682EF98E00E9411064A
:103E300088EE98E00E9411068C2F81701F928F935C
:103E400085EE98E09F938F930E94AA0683EE98E0F8
:103E50000E94110689ED98E00E941106C1FB882797
:103E600080F91F928F9386ED98E09F938F930E9425
:103E7000AA0684ED98E00E94110688EC98E00E9462
:103E80001106C2FB882780F91F928F9385EC98E07A
:103E90009F938F930E94AA0683EC98E00E941106DC
:103EA0008AEB98E00E941106C3FBCC27C0F91F9251
:103EB000CF9387EB98E09F938F930E94AA0685EBA0
:103EC00098E00E9411060E948018EC0181EA98E0B7
:103ED0000E941106DF93CF938CE998E09F938F9314
:103EE0000E94AA068AE998E00E94110681E898E0FB
:103EF0000E9411068C2F81701F928F938EE798E09D
:103F00009F938F930E94AA068DB79EB780960FB697
:103F1000F8949EBF0FBE8DBF8CE798E00E941106FB
:103F200085E698E00E941106C1FB882780F91F9260
:103F30008F9382E698E09F938F930E94AA0680E673
:103F400098E00E9411068EE498E00E9411068D2FE1
:103F500081701F928F938BE498E09F938F930E94C0
:103F6000AA0689E498E00E94110687E398E00E947F
:103F70001106D695D1701F92DF9384E398E09F934A
:103F80008F930E94AA0682E398E00E94110680E2C5
:103F900098E00E941106C2FB882780F91F928F9338
:103FA0008DE198E09F938F930E94AA068BE198E0A1
:103FB0000E94110689E098E00E941106C3FB882741
:103FC00080F91F928F9386E098E09F938F930E94D1
:103FD000AA0684E098E00E9411068AEF97E00E940A
:103FE0001106C4FB882780F91F928F9387EF97E013
:103FF0009F938F930E94AA0685EF97E00E94110677
:1040000083EE97E00E941106C5FB882780F91F9276
:104010008F9380EE97E09F938F930E94AA068EED78
:1040200097E00E94110682EC97E00E941106C6FB01
:10403000882780F91F928F938FEB97E09F938F9340
:104040000E94AA068DB79EB780960FB6F8949EBFC1
:104050000FBE8DBF8DEB97E00E94110685EB97E0B8
:104060000E941106C7FBCC27C0F91F92CF9382EBA9
:1040700097E09F938F930E94AA0680EB97E00E949F
:1040800011060F900F900F900F9081E073C0803158
:1040900009F4A2C080F48E3009F096CE90911B02F4
:1040A000892F8B7F92FF846080931B0282FF91C0D7
:1040B0008CE499E085C0863109F49EC0893109F00D
:1040C00083CE87ED95E00E9411068EEB95E00E946D
:1040D000110684E895E00E94110681E595E00E94B2
:1040E00011068BE195E00E94110680EF94E021C05B
:1040F0008A3249F190F4873211F128F48E3108F4B4
:1041000063CE8D511DC0893209F05ECE8FE899E0F3
:104110000E9411060E942C07B8CF833468F48A33BA
:1041200008F0A1C0853359F0883309F04DCE8DE0F9
:1041300096E00E941106A9CF833409F045CE80E0B5
:104140000E94B31EA2CF8FEA99E00E9411060E943E
:104150000A199BCF80911B02807F80931B0286EE01
:1041600095E00E9411068BEA99E00E94110681E019
:1041700080932C02DF91CF91089590911B02892F9B
:104180008E7F90FF816080931B0280FF03C083E8D5
:1041900099E0CFCF86E799E00E94110680911B023B
:1041A000817F80931B0271CF90911B02892F8D7F9D
:1041B00091FF826080931B0281FF08C089E699E02D
:1041C0000E94110680911B028160EBCF8BE599E084
:1041D000B0CF8CE399E0ADCF90911B02892F877F00
:1041E00093FF886080931B0283FF03C080E399E004
:1041F000E7CF83E299E09DCF82EE94E00E94110622
:104200000E94C40D1F928F9388EC94E09F938F932C
:104210000E94AA06809114011F928F9381EB94E073
:104220009F938F930E94AA06809139021F928F93C9
:104230008EE994E09F938F930E94AA060E94F4193E
:104240009F938F937F936F9387E894E09F938F93CF
:104250000E94AA068DB79EB742960FB6F8949EBFED
:104260000FBE8DBF12CF89536BCF80E008950C94A1
:1042700035218E518A3030F4E82FF0E0EF56FE4FB2
:104280008081089580E00895CF93C82F80912C02FB
:104290008130C1F0882339F0823009F447C0109290
:1042A0002C0280E00DC00E94AE178232D1F78C2F15
:1042B0000E94352181111BC08C2F0E94D11E81705C
:1042C000CF9108950E94AE17823289F38C2F0E94FD
:1042D000372181111BC0C431D9F060F4CB3071F0AB
:1042E000C031D1F088E794E00E94110613C081E04C
:1042F00090E0E5CFC93261F0C833A1F786EE95E0D2
:104300000E9411068EE794E00E94110681E0D7CF4B
:1043100010922C0280E0D3CF0E94791D8AE794E0AE
:104320000E94110682E080932C02F0CFC432C8F4C0
:10433000CE3108F0BEC0CB30E1F040F4C73009F414
:10434000CCC08CE193E00E94110626C0C331C1F1BC
:10435000C431B9F780912B02882351F110922B02BE
:104360000AC0CB3409F4B7C0C8F4C93299F3C833D2
:1043700041F70E94791D80912B02882309F4C4C063
:104380001F928F9386E193E09F938F930E94AA06DA
:104390000F900F900F900F9081E092CFC13509F4EC
:1043A00094C0C23509F48BC0CE3459F66AE08EC091
:1043B0008BE293E00E94110681E080932C0280CF73
:1043C00085E093E00E94110683EF92E00E941106BF
:1043D000809109011F928F9380EF92E09F938F93BA
:1043E0000E94AA068EEE92E00E9411068CED92E0E9
:1043F0000E941106809108011F928F9389ED92E02F
:104400009F938F930E94AA0687ED92E00E94110667
:1044100088EC92E00E941106809107011F928F9311
:1044200085EC92E09F938F930E94AA0683EC92E022
:104430000E94110682EB92E00E9411068091060113
:104440001F928F938FEA92E09F938F930E94AA0608
:104450008DEA92E00E94110688E992E00E9411061E
:10446000809103011F928F9385E992E09F938F9330
:104470000E94AA0683E992E00E9411068CE792E06E
:104480000E941106809102011F928F9389E792E0AA
:104490009F938F930E94AA0687E792E00E941106DD
:1044A0008DB79EB748960FB6F8949EBF0FBE8DBFCE
:1044B00062CF8C2F0E94392180932B025CCF61E068
:1044C00080912B020E94901D56CF61E080912B02BB
:1044D0000E94341E50CF6AE0F3CF8EE18093090131
:1044E00082E3809308018AE08093070184E180934E
:1044F000060188E08093030188E2809302018EE147
:1045000093E00E94110637CF83E193E01CCF8091A6
:10451000380208959FB7F89410922F029FBF909190
:104520004D02943009F048C02091E9002F7030917D
:10453000EC00932F917030FD90E8922B23E02093B4
:10454000E9002091EB0020FF34C02091EE0027FF0E
:1045500030C020912D02222321F02091E80025FF78
:1045600028C010922D0226E03091E80035FF14C0DB
:104570008093F1008091E80085FD27C08091E800DC
:1045800080FFFCCF8091E8008E778093E8009F70D9
:104590009093E90080E0089530914D02343049F461
:1045A0003091EB0035FD05C0215041F481E080934E
:1045B0002D029F709093E9008FEF0895EFE9FFE0DF
:1045C0003197F1F700C00000CFCF8FB7F89421E00A
:1045D00020932F028FBFDBCFCF93DF9300D00F92BA
:1045E000CDB7DEB790914D02943019F589837B8366
:1045F0006A8382E08093E9008FEF9091E800815018
:1046000095FD06C095ED9A95F1F700008111F5CF63
:104610008091E80085FF0DC050E040E063E070E06D
:10462000CE0101960E9490258091E8008E778093BC
:10463000E8000F900F900F90DF91CF910895CF93E6
:10464000DF93EC010E947325823011F0843031F445
:10465000BE0184E0DF91CF910C94EC22DF91CF91E9
:104660000895BC0183E00C94EC22CF93DF93EC011E
:104670000E947325823011F08430F9F482E0809337
:10468000E9008FEF9091E800815095FD06C095ED0F
:104690009A95F1F700008111F5CF8091E80085FF30
:1046A0000CC050E040E066E070E0CE010E94902532
:1046B0008091E8008E778093E800DF91CF91089594
:1046C000CF93DF93EC010E947325823011F0843088
:1046D00039F581E08093E9008FEF9091E8008150F7
:1046E00095FD06C095ED9A95F1F700008111F5CF83
:1046F0008091E80085FF14C050E040E068E070E081
:10470000CE010E9490258091E8008E778093E8008A
:1047100088E0FE01A0E3B2E001900D928A95E1F7F6
:10472000DF91CF91089580EF99E00E94110680916A
:104730004C02811109C00E9420270E947D27809190
:10474000E20084608093E20008958CEE99E00E947C
:10475000110610924C02089588EE99E00C9411060F
:1047600084EE99E00C94110680EE99E00E94110607
:104770000C94B01920912E022F5F822F62E30E94C9
:10478000202A992319F020932E02089510922E02C8
:1047900080912F028823F1F080914D028430C1F482
:1047A0009091E9009F702091EC00822F817020FD94
:1047B00080E8892B93E09093E9009091EB0090FFC3
:1047C00004C09091EE0097FD08C08F708093E900BF
:1047D00010922F0208951092F1009091E80095FD3B
:1047E000FACF9091E80090FFF0CF9091E8009E778B
:1047F0009093E800EACF42E061EC81E00E949C26C1
:1048000042E261EC82E00E949C2642E261EC83E09D
:104810000C949C2680914F02833009F45FC030F4E1
:104820008130C1F1823009F49BC008958A3009F4C7
:1048300087C08B3009F46DC0893009F04EC080917B
:104840004E02813209F049C0809152029091530288
:10485000029708F042C08091E800877F8093E800CB
:104860008091E80082FF35C09091F3008091F200C2
:10487000029729F48091F1008B7F813021F480919F
:10488000F100809338028091E8008B778093E800F4
:104890000C94D02680914E02813AF9F48091E80080
:1048A000877F8093E8008091520290915302892B78
:1048B00061F468E080E392E070E00E94DF2580917F
:1048C000E8008B778093E800089560E090E080E056
:1048D000F3CF80914D028111C3CF089580914E0294
:1048E000813AD9F78091520290915302892BA9F70E
:1048F0008091E800877F8093E8008091E80080FF46
:10490000FCCF809114018093F1008091E8008E77B4
:10491000BDCF80914E02813201F780915202909179
:104920005302892BD1F68091E800877F8093E800BD
:104930000E94D02680915002809314010C94A612FC
:1049400080914E02813249F68091E800877F809302
:10495000E8000E94D0268091510280933902089588
:1049600080914E02813A09F0B8CF8091E800877FAC
:104970008093E8008091E80080FFFCCF80913902AD
:10498000C2CF84B7877F84BF0FB6F894A895809173
:104990006000886180936000109260000FBE80E824
:1049A00090E00FB6F89480936100909361000FBE81
:1049B0000E94640E0E9420270E947D278091E200C1
:1049C00084608093E2008AE892E20E945018789412
:1049D0000E94052A0E946E0E8AE091E00E94BF0D9F
:1049E0008FEC99E00E94110680914D02853019F0FC
:1049F0000E94A00EF9CF8BEC99E00E9411060E9454
:104A0000681980914B02882379F30E9499198823B1
:104A100059F30E947A25E8CF0C940E25292F3327CD
:104A20002330310521F168F42130310509F449C002
:104A30002230310509F44AC090E080E030E020E007
:104A400029C02132310581F122323105A9F76330C5
:104A5000710590F7FB01EE0FFF1FE256FE4F20811C
:104A6000318165567E4FFB01808190E013C099270C
:104A70008130910599F0009741F08230910589F0DD
:104A80000397D1F6E4EFF9E002C0E4E2FAE08491A2
:104A900090E09F01FA01318320830895E0E2FAE07B
:104AA000F6CFEAEFF9E0F3CF6330710528F6660F31
:104AB000771FFB01EC55FE4F2081318189E090E0AA
:104AC000E9CF82E190E023E83AE0E4CF8BE590E0A3
:104AD00028E23AE0DFCF80914D02843011F482E089
:104AE000089581E0089580913A02811102C00C94EA
:104AF0006B25089580E189BD82E189BD09B400FE7E
:104B0000FDCF8091D8008F7D8093D8008091E00008
:104B100082608093E0008091E00081FDFCCF0895E9
:104B2000AF92BF92CF92DF92FF920F931F93CF93DA
:104B3000DF936C01EB018A010E94EF26F82E8111B0
:104B400023C00115110539F0F80180819181C81B3E
:104B5000D90BC80ED91EB12CA12C2097A9F0809199
:104B6000E80085FD22C08091E8008E778093E80000
:104B700001151105A1F0F80180819181A80EB91EDF
:104B8000B182A08285E0F82E8F2DDF91CF911F9109
:104B90000F91FF90DF90CF90BF90AF9008950E944B
:104BA000EF268823D1F2F82EEFCFF60181916F0125
:104BB0008093F1002197FFEFAF1ABF0ACECFFC011F
:104BC000809154029091550286179707A0F06115C5
:104BD000710529F49091E8009E779093E80090E0A9
:104BE0006115710551F4911108C08091E80082FFB0
:104BF00034C080E00895BC01F2CF80914D0288233B
:104C0000C1F18530C1F18091E80083FD30C0809111
:104C1000E80082FDEACF8091E80080FFE1CF80913B
:104C2000F3002091F200382F6115710519F028303A
:104C3000310558F091E02830310509F090E02091DD
:104C4000E8002E772093E800CBCF81918093F1008C
:104C5000615071092F5F3F4FE7CF80914D0288234C
:104C600041F0853041F08091E80083FFBECF81E0C4
:104C7000089582E0089583E00895FC018091540234
:104C80009091550286179707A0F06115710529F4D8
:104C90008091E8008E778093E80090E061157105BF
:104CA00051F4911108C08091E80082FF35C080E086
:104CB0000895BC01F2CF80914D028823C9F185305F
:104CC000C9F18091E80083FD31C08091E80082FD48
:104CD000EACF8091E80080FFE1CF8091F30020913E
:104CE000F200382F6115710519F02830310558F0A0
:104CF00091E02830310509F090E08091E8008E774E
:104D00008093E800CBCF84918093F100319661507D
:104D100071092F5F3F4FE6CF80914D02882341F00C
:104D2000853041F08091E80083FFBDCF81E0089598
:104D300082E0089583E00895982F973028F08F70CF
:104D40008093E90081E008959093E900242F762F65
:104D500050E0981731F07091EC002091ED005091E7
:104D6000F00021FD02C09F5FE8CF3091EB003E7F55
:104D70003093EB003091ED003D7F3093ED003091AA
:104D8000EB0031603093EB007093EC002093ED006A
:104D90005093F0002091EE0027FDE5CF80E00895CC
:104DA00080914E0287FF13C08091E80082FF06C009
:104DB0008091E8008B778093E80004C080914D02D9
:104DC0008111F2CF089580914D028823D9F380910B
:104DD000E80080FFF8CF8091E8008E77ECCF20913B
:104DE000E4003091E50095E6A9012091EC00822FC6
:104DF000817020FF06C08091E80080FF06C080E03F
:104E000008952091E80022FD1AC080914D02882368
:104E100089F0853089F08091EB0085FD0FC02091ED
:104E2000E4003091E50042175307F9F29150E1F6A2
:104E300084E0089582E0089583E0089581E0089574
:104E40000E948E270E949627E0EEF0E0808181602C
:104E50008083E8EDF0E080818F77808319BCA7ED37
:104E6000B0E08C918E7F8C9380818F7E80831092B6
:104E70004C0208950F931F93CF93DF930E948E27C8
:104E80000E949627C8EDD0E088818F77888388813B
:104E90008068888388818F7D888319BC10924D0239
:104EA0001092490210924B0210924A0200EE10E05A
:104EB000F80180818B7F808388818160888342E0D4
:104EC00060E080E00E949C26E1EEF0E080818E7F31
:104ED0008083E2EEF0E08081816080838081886061
:104EE0008083F80180818E7F8083888180618883C0
:104EF000DF91CF911F910F910895E8EDF0E080814F
:104F00008F7E8083E7EDF0E080818160808384E0A4
:104F100082BF81E080934C020C943A27E8EDF0E0E8
:104F200080818E7F80831092E20008951092DA00D3
:104F30001092E10008951F920F920FB60F92112464
:104F40002F933F934F935F936F937F938F939F9391
:104F5000AF93BF93EF93FF938091E10082FF0BC06B
:104F60008091E20082FF07C08091E1008B7F8093F7
:104F7000E1000E94BA238091DA0080FF19C080917D
:104F8000D80080FF15C08091DA008E7F8093DA0010
:104F90008091D90080FF96C080E189BD82E189BD02
:104FA00009B400FEFDCF81E080934D020E9493235F
:104FB0008091E10080FF19C08091E20080FF15C060
:104FC0008091E2008E7F8093E2008091E200806118
:104FD0008093E2008091D80080628093D80019BC51
:104FE00085E080934D020E94B0238091E10084FF10
:104FF0002BC08091E20084FF27C080E189BD82E15F
:1050000089BD89B5982F917080FFFBCF8091D80022
:105010008F7D8093D8008091E1008F7E8093E100A6
:105020008091E2008F7E8093E2008091E2008160B7
:105030008093E20080914902882309F449C084E00A
:1050400080934D020E94B4238091E10083FF29C028
:105050008091E20083FF25C08091E100877F8093EB
:10506000E10082E080934D02109249028091E100BC
:105070008E7F8093E1008091E2008E7F8093E2003A
:105080008091E20080618093E20042E060E080E095
:105090000E949C268091F00088608093F0000E941E
:1050A000AC23FF91EF91BF91AF919F918F917F9131
:1050B0006F915F914F913F912F910F900FBE0F9085
:1050C0001F90189519BC10924D020E94A52370CF15
:1050D0008091E30087FD93E090934D02B3CF1F9240
:1050E0000F920FB60F9211242F933F934F935F931C
:1050F0006F937F938F939F93AF93BF93CF93DF93E0
:10510000EF93FF93D091E900DF708091EC00C82FFE
:10511000C17080FDC0E81092E9008091F000877FA7
:105120008093F00078940E94B3281092E900809157
:10513000F00088608093F000CD2BCF70C093E90021
:10514000FF91EF91DF91CF91BF91AF919F918F919F
:105150007F916F915F914F913F912F910F900FBE73
:105160000F901F9018951F93CF93DF93CDB7DEB7A5
:10517000AA970FB6F894DEBF0FBECDBF8EE492E0C3
:105180002091F100FC012193CF01F2E086359F07C9
:10519000B9F70E940A248091E80083FF1EC1809124
:1051A0004E0290914F029A3008F017C1E92FF0E0BB
:1051B000E854F54D0C94402A803899F0823809F073
:1051C0000CC1809152028F70873008F006C1809325
:1051D000E9008091EB0085FB882780F91092E900B7
:1051E00006C080914A0290914B0291118260909189
:1051F000E800977F9093E8008093F1001092F1000F
:105200008091E8008E77E5C0882309F4D3C082300E
:1052100009F0E3C0809150028111D6C08091520202
:105220008F702FEF280F263008F0D7C08093E90049
:105230002091EB0020FFC8C0933031F48091EB0047
:1052400080628093EB00C0C09091EB0090619093DE
:10525000EB0021E030E001C0220F8A95EAF72093AD
:10526000EA001092EA008091EB008860EACF811199
:10527000B4C0109150021F778091E3008078812B99
:105280008093E3008091E800877F8093E8000E948C
:10529000D0268091E80080FFFCCF8091E3008068F9
:1052A0008093E30082E0111183E080934D0295C06A
:1052B0008058823008F091C0809150029091510244
:1052C0008C3D23E09207A1F583E08A838AE28983FB
:1052D0004FB7F894DE01139620E03EE051E2E32F51
:1052E000F0E050935700E49120FF03C0E295EF7087
:1052F0003F5FEF708E2F90E0EA30C0F0C7968D933D
:105300009D932F5F243159F74FBF8091E800877F2D
:105310008093E8006AE270E0CE0101960E94DF25EA
:105320008091E8008B778093E80057C0C096E7CF64
:105330006091520270915302AE014F5F5F4F0E9425
:105340000C25BC01892B09F448C09091E800977F97
:105350009093E80089819A810E943D26E1CF8038B0
:10536000E1F58091E800877F8093E8008091490211
:105370008093F10045CF811130C09091500292305E
:1053800060F58091E800877F8093E8009093490260
:105390000E94D02680914902882311F084E005C044
:1053A0008091E30087FDFACF81E080934D020E9457
:1053B000FB2313C080915002813079F481E0933057
:1053C00009F080E080934B021092E9008091E800A0
:1053D000877F8093E8000E94D0268091E80083FFB9
:1053E0000AC08091E800877F8093E8008091EB00FD
:1053F00080628093EB00AA960FB6F894DEBF0FBED2
:10540000CDBFDF91CF911F910895CF9380914D0231
:105410008823A1F0C091E900CF709091EC00892F12
:10542000817090FD80E8C82B1092E9008091E8001F
:1054300083FD0E94B328CF70C093E900CF910895F7
:10544000991B79E004C0991F961708F0961B881FD6
:105450007A95C9F78095089597FB072E16F4009466
:1054600007D077FD09D00E94462A07FC05D03EF4FC
:10547000909581959F4F0895709561957F4F089500
:10548000EE0FFF1F0590F491E02D0994AA1BBB1BA2
:1054900051E107C0AA1FBB1FA617B70710F0A61B34
:1054A000B70B881F991F5A95A9F780959095BC0155
:1054B000CD010895F999FECF92BD81BDF89A992743
:1054C00080B50895A8E1B0E042E050E00C948E2A47
:1054D000262FF999FECF92BD81BDF89A019700B4AD
:1054E000021639F01FBA20BD0FB6F894FA9AF99A4D
:1054F0000FBE08950396272F0E94692A0E94682AEA
:10550000252F0E94692A242F0C94692A0196272F9F
:105510000E94692A0C94682ADC01CB01FC01F999EC
:10552000FECF06C0F2BDE1BDF89A319600B40D92EF
:1055300041505040B8F70895F894FFCF48104810F4
:10554000A010A010F2100E11751075105011DC1182
:10555000EB11EB11B512B512BE12BE12C012BE1283
:10556000BE12BE12B512B512C512BE12BE12C512BF
:10557000DC280429ED290429ED2937295829ED29AA
:04558000AF29BB296B
:1055840010022808641E140A321E87226023352361
:1055940031231F2301E200E900EA00B500B600B799
:1055A40000CD008301CC008A0192019401210223E1
:1055B4000224022502260227022A02B300B4006F45
:1055C4000070008182833534C636323300FF010017
:1055D400010000FFFF0000010001FF00F4F6F5F7F1
:1055E400E200E900EA00B500B600B700CD0083018F
:1055F400CC008A0192019401210223022402250293
:10560400260227022A02B300B4006F0070008182D0
:105614008301020304050607080900408122380BB0
:0A562400B70A950A3A0A530A6C0A05
:00000001FF
